{
  "transactions": [
    {
      "hash": "0xc5d1737e9f8cca74f726a0060e3bf88b2e59fded2f70fa0146b6e77b18d065ef",
      "transactionType": "CREATE",
      "contractName": "MockUSDC",
      "contractAddress": "0x92dde23845a3518e577001dfaa1095ec4d5725f4",
      "function": null,
      "arguments": null,
      "transaction": {
        "from": "0x28556cc7cba0a5af1170fb9ed4e634a811366e70",
        "gas": "0xa384f",
        "value": "0x0",
        "input": "0x608060405234620002de5762000014620002e3565b6200001e620002e3565b8151906001600160401b0390818311620001de576003908154906001948583811c9316968715620002d3575b60209788851014620002bd578190601f9485811162000267575b5088908583116001146200020057600092620001f4575b505060001982861b1c191690861b1783555b8051938411620001de5760049586548681811c91168015620001d3575b82821014620001be5783811162000173575b5080928511600114620001055750938394918492600095620000f9575b50501b92600019911b1c19161790555b6040516107559081620003158239f35b015193503880620000d9565b92919084601f1981168860005285600020956000905b898383106200015857505050106200013d575b50505050811b019055620000e9565b01519060f884600019921b161c19169055388080806200012e565b8587015189559097019694850194889350908101906200011b565b87600052816000208480880160051c820192848910620001b4575b0160051c019087905b828110620001a7575050620000bc565b6000815501879062000197565b925081926200018e565b602288634e487b7160e01b6000525260246000fd5b90607f1690620000aa565b634e487b7160e01b600052604160045260246000fd5b0151905038806200007b565b90889350601f19831691876000528a6000209260005b8c82821062000250575050841162000237575b505050811b0183556200008d565b015160001983881b60f8161c1916905538808062000229565b8385015186558c9790950194938401930162000216565b90915085600052886000208580850160051c8201928b8610620002b3575b918a91869594930160051c01915b828110620002a357505062000064565b600081558594508a910162000293565b9250819262000285565b634e487b7160e01b600052602260045260246000fd5b92607f16926200004a565b600080fd5b60408051919082016001600160401b03811183821017620001de5760405260048252635553444360e01b602083015256fe608060408181526004918236101561001657600080fd5b600092833560e01c91826306fdde03146104ef57508163095ea7b31461044157816318160ddd1461042257816323b872dd1461032d578163313ce5671461031157816340c10f191461026357816370a082311461022d57816395d89b411461010e57508063a9059cbb146100de5763dd62ed3e1461009357600080fd5b346100da57806003193601126100da57806020926100af610610565b6100b761062b565b6001600160a01b0391821683526001865283832091168252845220549051908152f35b5080fd5b50346100da57806003193601126100da576020906101076100fd610610565b6024359033610641565b5160018152f35b8383346100da57816003193601126100da57805190828454600181811c90808316928315610223575b6020938484108114610210578388529081156101f4575060011461019f575b505050829003601f01601f191682019267ffffffffffffffff84118385101761018c57508291826101889252826105c7565b0390f35b634e487b7160e01b815260418552602490fd5b8787529192508591837f8a35acfbc15ff81a39ae7d344fd709f28e8600b4aa8c65c6b64bfe7fe36bd19b5b8385106101e05750505050830101858080610156565b8054888601830152930192849082016101ca565b60ff1916878501525050151560051b8401019050858080610156565b634e487b7160e01b895260228a52602489fd5b91607f1691610137565b5050346100da5760203660031901126100da57806020926001600160a01b03610254610610565b16815280845220549051908152f35b82843461030e578160031936011261030e5761027d610610565b6001600160a01b03169060243582156102f7576002548181018091116102e457602095507fddf252ad1be2c89b69c2b068fc378daa952ba7f163c4a11628f55a4df523b3ef9186916002558484528382528584208181540190558551908152a35160018152f35b634e487b7160e01b835260118652602483fd5b835163ec442f0560e01b8152808601839052602490fd5b80fd5b5050346100da57816003193601126100da576020905160068152f35b9050823461030e57606036600319011261030e57610349610610565b61035161062b565b91604435936001600160a01b03831680835260016020528683203384526020528683205491600019831061038e575b602088610107898989610641565b8683106103f65781156103df5733156103c85750825260016020908152868320338452815291869020908590039055829061010787610380565b8751634a1406b160e11b8152908101849052602490fd5b875163e602df0560e01b8152908101849052602490fd5b8751637dc7a0d960e11b8152339181019182526020820193909352604081018790528291506060010390fd5b5050346100da57816003193601126100da576020906002549051908152f35b9050346104eb57816003193601126104eb5761045b610610565b6024359033156104d4576001600160a01b03169182156104bd57508083602095338152600187528181208582528752205582519081527f8c5be1e5ebec7d5bd14f71427d1e84f3dd0314c0f7b2291e5b200ac8c7c3b925843392a35160018152f35b8351634a1406b160e11b8152908101859052602490fd5b835163e602df0560e01b8152808401869052602490fd5b8280fd5b849084346104eb57826003193601126104eb5782600354600181811c908083169283156105bd575b6020938484108114610210578388529081156101f4575060011461056757505050829003601f01601f191682019267ffffffffffffffff84118385101761018c57508291826101889252826105c7565b600387529192508591837fc2575a0e9e593c00f959f8c92f12db2869c3395a3b0502d05e2516446f71f85b5b8385106105a95750505050830101858080610156565b805488860183015293019284908201610593565b91607f1691610517565b6020808252825181830181905290939260005b8281106105fc57505060409293506000838284010152601f8019910116010190565b8181018601518482016040015285016105da565b600435906001600160a01b038216820361062657565b600080fd5b602435906001600160a01b038216820361062657565b916001600160a01b0380841692831561070657169283156106ed57600090838252816020526040822054908382106106bb575091604082827fddf252ad1be2c89b69c2b068fc378daa952ba7f163c4a11628f55a4df523b3ef958760209652828652038282205586815220818154019055604051908152a3565b60405163391434e360e21b81526001600160a01b03919091166004820152602481019190915260448101839052606490fd5b60405163ec442f0560e01b815260006004820152602490fd5b604051634b637e8f60e11b815260006004820152602490fdfea26469706673582212203a50ef91d7cdad341a4ef8c73cb0e987d5bd6fe9e60e038feff2bec0d0aefade64736f6c63430008140033",
        "nonce": "0xac",
        "chainId": "0xaa36a7"
      },
      "additionalContracts": [],
      "isFixedGasLimit": false
    },
    {
      "hash": "0xdc3467705a9ad7b534076f1194c2ea5ccff6ab2767c9c0b621d93508b0c7f0f6",
      "transactionType": "CREATE",
      "contractName": "NftMarketplace",
      "contractAddress": "0xdba9d270059eb6d21d61b7c58a95d87c4d872305",
      "function": null,
      "arguments": [
        "0x92dDE23845a3518e577001DFAA1095eC4D5725F4"
      ],
      "transaction": {
        "from": "0x28556cc7cba0a5af1170fb9ed4e634a811366e70",
        "gas": "0xcc63d",
        "value": "0x0",
        "input": "0x60803461007557601f610a6638819003918201601f19168301916001600160401b0383118484101761007a5780849260209460405283398101031261007557516001600160a01b0381169081900361007557600160005560018060a01b031960015416176001556040516109d590816100918239f35b600080fd5b634e487b7160e01b600052604160045260246000fdfe6080604081815260048036101561001557600080fd5b600092833560e01c90816330cfeda9146108285750806388700d1c146107ab57806389bfd38f146105d95780639038e693146105545780639f37092a14610343578063b2ddee0614610203578063d41c3a65146101d75763f772adf11461007b57600080fd5b346101d35761008936610877565b9190936001600160a01b03938483169485885260209360028552838920888a52855283892084516100b9816108a1565b86846001845494858552015416910152156101a657506100d761097c565b82516331a9108f60e11b815282810188905284816024818a5afa90811561019c57899161016f575b501633036101615783156101535750907fd547e933094f12a9159076970143ebe73234e64480317844b0dcb36117116de4918487526002825280872086885282528381882055519283523392a46001815580f35b905163e1abbfc560e01b8152fd5b90516330cd747160e01b8152fd5b61018f9150853d8711610195575b61018781836108d3565b8101906108f5565b386100ff565b503d61017d565b84513d8b823e3d90fd5b8351631a0c522360e21b81526001600160a01b039091168184019081526020810189905281906040010390fd5b8280fd5b5050346101ff57816003193601126101ff576020906001600160a01b03600154169051908152f35b5080fd5b509190346101ff57806003193601126101ff5761021e61085c565b92602435906001600160a01b0394858116918451966331a9108f60e11b885284828901526020978881602481885afa90811561033957908291899161031c575b5016330361030d578387526002885285872085885288528587209088875191610286836108a1565b6001845494858552015416910152156102e057856000600187878b888281337f9ba1a3cb55ce8d63d072a886f94d2a744f50cddf82128e897d0661f5ec6231588a80a4865260028152828620918652528320828155015580f35b8451631a0c522360e21b81526001600160a01b039092169082019081526020810184905281906040010390fd5b5084516330cd747160e01b8152fd5b61033391508a3d8c116101955761018781836108d3565b3861025e565b87513d8a823e3d90fd5b5090806003193601126101d35761035861085c565b916024356001600160a01b03808516948587526020906002825285882084895282528588208651610388816108a1565b838560018454948585520154169101521561052757506103a661097c565b8587526002815284872083885281528487209085516103c4816108a1565b83600184549485845201541692828201938085528a5260038352878a20805491820180921161051457918a96959493916104879355858a82518b519081527f263223b1dd81e51054a4e6f791d45a4a1ddb4aadcd93a2dfd892615c3fdac187853392a4898752600282528887208688528252888720878155600190810188905554905189516323b872dd60e01b938101939093523360248401523060448401526064830152841661048282608481015b03601f1981018452836108d3565b610914565b511694803b156101d3578451632142170760e11b81526001600160a01b039096168487019081523360208201526040810192909252859182908490829060600103925af1801561050a576104de575b836001815580f35b67ffffffffffffffff83116104f75750523880806104d6565b634e487b7160e01b845260419052602483fd5b82513d86823e3d90fd5b634e487b7160e01b8b526011885260248bfd5b8551631a0c522360e21b81526001600160a01b039091168186019081526020810185905281906040010390fd5b50346101d357826003193601126101d3573383526003602052818320549081156105cb57503380845260036020908152838520859055600154935163a9059cbb60e01b91810191909152602481019190915260448101919091526105c8916001600160a01b03166104828260648101610474565b80f35b825163c4d8fa8760e01b8152fd5b509190346101ff576105ea36610877565b9091926001600160a01b039283851694858752602090600282528388208389528252838820845161061a816108a1565b8388600184549485855201541691015261077e575082516331a9108f60e11b815288810183905281816024818a5afa908115610737579086918991610761575b5016330361075157831561074157825163020604bf60e21b815288810183905281816024818a5afa90811561073757889161071a575b50853091160361070a57908291818760019695518681527fd547e933094f12a9159076970143ebe73234e64480317844b0dcb36117116de4843392a48251936106d8856108a1565b84528084019633885288526002815282882091885252852090518155019151166001600160a01b031982541617905580f35b8251634be3a2c560e01b81528890fd5b6107319150823d84116101955761018781836108d3565b38610690565b84513d8a823e3d90fd5b825163e1abbfc560e01b81528890fd5b82516330cd747160e01b81528890fd5b6107789150833d85116101955761018781836108d3565b3861065a565b8351634a5568d560e01b81526001600160a01b03909116818a019081526020810184905281906040010390fd5b828434610825578160031936011261082557816107c661085c565b9180602083516107d5816108a1565b82815201526001600160a01b0380931681526002602052818120602435825260205220908251610804816108a1565b60208260018554958685520154169101908152835192835251166020820152f35b80fd5b849084346101d35760203660031901126101d3576020926001600160a01b0361084f61085c565b1681526003845220548152f35b600435906001600160a01b038216820361087257565b600080fd5b6060906003190112610872576004356001600160a01b038116810361087257906024359060443590565b6040810190811067ffffffffffffffff8211176108bd57604052565b634e487b7160e01b600052604160045260246000fd5b90601f8019910116810190811067ffffffffffffffff8211176108bd57604052565b9081602091031261087257516001600160a01b03811681036108725790565b906000602091828151910182855af115610970576000513d61096757506001600160a01b0381163b155b6109455750565b604051635274afe760e01b81526001600160a01b039091166004820152602490fd5b6001141561093e565b6040513d6000823e3d90fd5b60026000541461098d576002600055565b604051633ee5aeb560e01b8152600490fdfea2646970667358221220d737c248f0f6903c34641bf7d5c8c6a04c82dacce85efea2f0e8febacb322e2e64736f6c6343000814003300000000000000000000000092dde23845a3518e577001dfaa1095ec4d5725f4",
        "nonce": "0xad",
        "chainId": "0xaa36a7"
      },
      "additionalContracts": [],
      "isFixedGasLimit": false
    },
    {
      "hash": "0x809a8908ca981abac3a799363bb18d3fd247c9ab4919dfbc5aa6b159c8149d2b",
      "transactionType": "CREATE",
      "contractName": "CakeNft",
      "contractAddress": "0xcc935538a7af54051d9d8561262a71eb1d2a706d",
      "function": null,
      "arguments": null,
      "transaction": {
        "from": "0x28556cc7cba0a5af1170fb9ed4e634a811366e70",
        "gas": "0x296c2a",
        "value": "0x0",
        "input": "0x60803462000373576001600160401b03906040818101838111838210176200035d578152600882526020916710d85ad94813919560c21b83820152815193828501858110828211176200035d578352600285526121a760f11b8486015281518181116200035d576000948554916001948584811c9416801562000352575b838510146200033e578190601f94858111620002eb575b508390858311600114620002875789926200027b575b5050600019600383901b1c191690851b1786555b8651928311620002675783548481811c911680156200025c575b82821014620002485782811162000200575b5080918311600114620001995750849582939495926200018d575b5050600019600383901b1c191690821b1790555b3315620001755760068054336001600160a01b03198216811790925591519290916001600160a01b0316907f8be0079c531659141344cd1fd0a4f28419497f9722a3daafe3b4186f6b6457e09080a36123539081620003798239f35b51631e4fbdf760e01b81526004810191909152602490fd5b01519050388062000105565b90601f198316968487528287209287905b898210620001e8575050838596979810620001ce575b505050811b01905562000119565b015160001960f88460031b161c19169055388080620001c0565b808785968294968601518155019501930190620001aa565b8487528187208380860160051c8201928487106200023e575b0160051c019085905b82811062000232575050620000ea565b88815501859062000222565b9250819262000219565b634e487b7160e01b87526022600452602487fd5b90607f1690620000d8565b634e487b7160e01b86526041600452602486fd5b015190503880620000aa565b898052848a208894509190601f1984168b5b87828210620002d45750508411620002ba575b505050811b018655620000be565b015160001960f88460031b161c19169055388080620002ac565b8385015186558b9790950194938401930162000299565b9091508880528389208580850160051c82019286861062000334575b918991869594930160051c01915b8281106200032557505062000094565b8b815585945089910162000315565b9250819262000307565b634e487b7160e01b88526022600452602488fd5b93607f16936200007d565b634e487b7160e01b600052604160045260246000fd5b600080fdfe610480604081815260048036101561001657600080fd5b600092833560e01c90816301ffc9a714610d755750806304bc2d451461099157806306fdde0314610973578063081812fc1461093a578063095ea7b3146108605780631df325ed1461083f57806323b872dd1461082757806330d871c6146107d857806342842e0e146107a95780635ca564d1146107755780636352211e146107455780636e02007d1461072657806370a08231146106d1578063715018a61461067a5780638da5cb5b1461065257806395d89b411461056f578063a22cb465146104ce578063b88d4fde1461045b578063c87b56dd146101e8578063e985e9c5146101965763f2fde38b1461010b57600080fd5b3461019257602036600319011261019257610124610e29565b9061012d610fa6565b6001600160a01b0380921692831561017c575050600654826001600160a01b0319821617600655167f8be0079c531659141344cd1fd0a4f28419497f9722a3daafe3b4186f6b6457e08380a380f35b51631e4fbdf760e01b8152908101849052602490fd5b8280fd5b5050346101e457806003193601126101e45760ff816020936101b6610e29565b6101be610e44565b6001600160a01b0391821683526005875283832091168252855220549151911615158152f35b5080fd5b5090346101925760209182600319360112610457578035906001600160a01b0361021183611278565b1615610449575083526008825280832081519380825461023081610fd2565b9182885286880194600192838116908160001461042957506001146103f4575b6103c1886103f0896103e1838e8c61026a828e0383610f31565b6103af6103876103a1609f88519561028187610edd565b601d8752878701957f646174613a6170706c69636174696f6e2f6a736f6e3b6261736536342c00000087526102b461100c565b918b51958693683d913730b6b2911d1160b91b8c8601526102df8c8251928391602989019101610de1565b8401917f222c20226465736372697074696f6e223a22412064656c6963696f757320707360298401527f6575646f2d72616e646f6d2063616b6521222c2000000000000000000000000060498401527f2261747472696275746573223a205b7b2274726169745f74797065223a202279605d8401527f756d6d79222c202276616c7565223a203130307d5d2c2022696d616765223a22607d840152518093609d840190610de1565b0161227d60f01b609d82015203607f810184520182610f31565b6103a96114a1565b90611500565b90855198899351809286860190610de1565b82016103d582518093868085019101610de1565b01038087520185610f31565b51928284938452830190610e04565b0390f35b90809450528583205b828410610416575050508401830183858361026a610250565b80548885018801529286019281016103fd565b60ff1916875250505050151560051b85018401905083858361026a610250565b82516336faf6d760e11b8152fd5b8380fd5b8382346101e45760803660031901126101e457610476610e29565b61047e610e44565b6044359060643567ffffffffffffffff81116104ca57366023820112156104ca576104c7948160246104b593369301359101610f6f565b926104c18383836110c7565b336112b3565b80f35b8580fd5b5090346101925780600319360112610192576104e8610e29565b906024359182151580930361056b576001600160a01b03169283156105565750338452600560205280842083855260205280842060ff1981541660ff8416179055519081527f17307eab39ab6107e8899845ad3d59bd9653f200f220920489ca2b5937696c3160203392a380f35b836024925191630b61174360e31b8352820152fd5b8480fd5b5050346101e457816003193601126101e45780519082600180549161059383610fd2565b8086529282811690811561062a57506001146105ce575b5050506105bc826103f0940383610f31565b51918291602083526020830190610e04565b94508085527fb10e2d527612073b26eecdfd717e6a320cf44b4afac2b0732d9fcbe2b7fa0cf65b828610610612575050506105bc8260206103f095820101946105aa565b805460208787018101919091529095019481016105f5565b6103f09750869350602092506105bc94915060ff191682840152151560051b820101946105aa565b5050346101e457816003193601126101e4576020906001600160a01b03600654169051908152f35b83346106ce57806003193601126106ce57610693610fa6565b806001600160a01b0360065481198116600655167f8be0079c531659141344cd1fd0a4f28419497f9722a3daafe3b4186f6b6457e08280a380f35b80fd5b5091346106ce5760203660031901126106ce576001600160a01b036106f4610e29565b169283156107115750806020938392526003845220549051908152f35b91516322718ad960e21b815291820152602490fd5b5050346101e457816003193601126101e4576020906007549051908152f35b5091346106ce5760203660031901126106ce57506001600160a01b0361076d60209335611278565b915191168152f35b5091346106ce5760203660031901126106ce57506107966103f09235611647565b9051918291602083526020830190610e04565b5050346101e4576104c7906107bd36610e5a565b919251926107ca84610ec1565b8584526104c18383836110c7565b5091346106ce5760203660031901126106ce5782359067ffffffffffffffff82116106ce57366023830112156106ce57506108226103f09382602461079694369301359101610f6f565b6113ff565b83346106ce576104c761083936610e5a565b916110c7565b5091346106ce5760203660031901126106ce57506107966103f09235611799565b50903461019257806003193601126101925761087a610e29565b9160243561088781611278565b33151580610927575b806108ff575b6108e95781906001600160a01b03809616958691167f8c5be1e5ebec7d5bd14f71427d1e84f3dd0314c0f7b2291e5b200ac8c7c3b9258880a484526020528220906001600160a01b031982541617905580f35b835163a9fbf51f60e01b81523381850152602490fd5b506001600160a01b0381168652600560205283862033875260205260ff848720541615610896565b50336001600160a01b0382161415610890565b50346101925760203660031901126101925781602093826001600160a01b03933561096481611278565b50825285522054169051908152f35b5050346101e457816003193601126101e4576103f09061079661100c565b509034610192578260031936011261019257600754908051936109e4610822602096878101903360601b8252866034820152436054820152426074820152607481526109dc81610e8f565b519020611799565b918051926109f184610ec1565b8284523315610d5e57848352600287526001600160a01b0382842054169384151580610d26575b33855260038952868486209660019788815401905581875260028b52858720336001600160a01b031982541617905533907fddf252ad1be2c89b69c2b068fc378daa952ba7f163c4a11628f55a4df523b3ef8880a4610d0f57333b610bf1575b50848352600887528183209080519067ffffffffffffffff8211610bde578190610aa28454610fd2565b601f8111610b8e575b508990601f8311600114610b2f578692610b24575b5050600019600383901b1c191690851b1790555b5193837f72102923c3d44433bd725cb2c744a4c92a536ad249b665dec9853a16ed6655258380a2600754928301809311610b115750506007558152f35b634e487b7160e01b825260119052602490fd5b015190503880610ac0565b8487528a87208894509190601f198416885b8d828210610b785750508411610b5f575b505050811b019055610ad4565b015160001960f88460031b161c19169055388080610b52565b8385015186558b97909501949384019301610b41565b909150838652898620601f840160051c8101918b8510610bd4575b84939291601f8a920160051c01915b828110610bc6575050610aab565b888155859450899101610bb8565b9091508190610ba9565b634e487b7160e01b855260418852602485fd5b82959397949251858180610c2c630a85bd0160e11b95868352338d8401528d6024840152896044840152608060648401526084830190610e04565b03818c335af1899181610ccb575b50610c9a5750505050503d600014610c91573d610c5681610f53565b90610c6384519283610f31565b81528094823d92013e5b83519384610c8b578251633250574960e11b81523381860152602490fd5b84925001fd5b60609350610c6d565b9497939592946001600160e01b03191603610cb55738610a78565b8151633250574960e11b81523381880152602490fd5b9091508681813d8311610d08575b610ce38183610f31565b81010312610d0457516001600160e01b031981168103610d04579038610c3a565b8980fd5b503d610cd9565b82516339e3563760e11b8152808801859052602490fd5b610d4787600052600460205260406000206001600160a01b03198154169055565b858552600389528385208054600019019055610a18565b8151633250574960e11b8152808701849052602490fd5b92505034610192576020366003190112610192573563ffffffff60e01b811680910361019257602092506380ac58cd60e01b8114908115610dd0575b8115610dbf575b5015158152f35b6301ffc9a760e01b14905038610db8565b635b5e139f60e01b81149150610db1565b60005b838110610df45750506000910152565b8181015183820152602001610de4565b90602091610e1d81518092818552858086019101610de1565b601f01601f1916010190565b600435906001600160a01b0382168203610e3f57565b600080fd5b602435906001600160a01b0382168203610e3f57565b6060906003190112610e3f576001600160a01b03906004358281168103610e3f57916024359081168103610e3f579060443590565b60a0810190811067ffffffffffffffff821117610eab57604052565b634e487b7160e01b600052604160045260246000fd5b6020810190811067ffffffffffffffff821117610eab57604052565b6040810190811067ffffffffffffffff821117610eab57604052565b6060810190811067ffffffffffffffff821117610eab57604052565b6080810190811067ffffffffffffffff821117610eab57604052565b90601f8019910116810190811067ffffffffffffffff821117610eab57604052565b67ffffffffffffffff8111610eab57601f01601f191660200190565b929192610f7b82610f53565b91610f896040519384610f31565b829481845281830111610e3f578281602093846000960137010152565b6001600160a01b03600654163303610fba57565b60405163118cdaa760e01b8152336004820152602490fd5b90600182811c92168015611002575b6020831014610fec57565b634e487b7160e01b600052602260045260246000fd5b91607f1691610fe1565b6040519060008281549161101f83610fd2565b808352926001908181169081156110a55750600114611048575b5061104692500383610f31565b565b600080805291507f290decd9548b62a8d60345a988386fc84ba6bc95484008f6362f93160ef3e5635b84831061108a5750611046935050810160200138611039565b81935090816020925483858a01015201910190918592611071565b90506020925061104694915060ff191682840152151560051b82010138611039565b90916001600160a01b0380931692831561125f576000928284528260209560028752604096848888205416968791331515806111c9575b509060027fddf252ad1be2c89b69c2b068fc378daa952ba7f163c4a11628f55a4df523b3ef9284611191575b858352600381528b83208054600101905586835252898120805473ffffffffffffffffffffffffffffffffffffffff19168517905580a416928383036111705750505050565b6064945051926364283d7b60e01b8452600484015260248301526044820152fd5b6111b287600052600460205260406000206001600160a01b03198154169055565b848352600381528b8320805460001901905561112a565b9193945091508061121e575b156111e5578592918791386110fe565b878688611202576024915190637e27328960e01b82526004820152fd5b604491519063177e802f60e01b82523360048301526024820152fd5b503387148015611243575b806111d557508582526004815233858984205416146111d5565b5086825260058152878220338352815260ff8883205416611229565b604051633250574960e11b815260006004820152602490fd5b8060005260026020526001600160a01b036040600020541690811561129b575090565b60249060405190637e27328960e01b82526004820152fd5b90939192833b6112c5575b5050505050565b6001600160a01b039592939495809516946040519681630a85bd0160e11b94858a52166004890152166024870152604486015260806064860152846113106020946084830190610e04565b039483816000978189895af18691816113bb575b50611385575050503d60001461137c573d61133e81610f53565b9061134c6040519283610f31565b81528093823d92013e5b8251928361137757604051633250574960e11b815260048101849052602490fd5b019050fd5b60609250611356565b919450915063ffffffff60e01b16036113a3575038808080806112be565b60249060405190633250574960e11b82526004820152fd5b9091508481813d83116113f8575b6113d38183610f31565b810103126113f457516001600160e01b0319811681036113f4579038611324565b8680fd5b503d6113c9565b61149e61147e9160405161141281610edd565b601a815260209161146b838301917f646174613a696d6167652f7376672b786d6c3b6261736536342c00000000000083526103a1856040518361145e8295518092858086019101610de1565b8101038084520182610f31565b9060405195869351809286860190610de1565b820161149282518093868085019101610de1565b01038084520182610f31565b90565b604051906114ae82610ef9565b604082527f6768696a6b6c6d6e6f707172737475767778797a303132333435363738392b2f6040837f4142434445464748494a4b4c4d4e4f505152535455565758595a61626364656660208201520152565b80511561163257805160029182820180921161161c5760038092049384841b947f3fffffffffffffffffffffffffffffffffffffffffffffffffffffffffffffff81160361161c579261156b61155586610f53565b956115636040519788610f31565b808752610f53565b6020860190601f190136823793829183518401906020820192835194600085525b8381106115cb5750505050525106806001146115b8576002146115ad575090565b603d90600019015390565b50603d9081600019820153600119015390565b87600491999293949901918251600190603f9082828260121c16880101518453828282600c1c16880101518385015382828260061c168801015188850153168501015189820153019792919061158c565b634e487b7160e01b600052601160045260246000fd5b505060405161164081610ec1565b6000815290565b6040519061165482610edd565b600782526020820160203682378251156116eb576023905360005b6006811061167c57505090565b8060031b8181046008148215171561161c5782600f911c1660108110156116eb576001820180831161161c57845111156116eb577f3031323334353637383961626364656600000000000000000000000000000000901a60218285010153600019811461161c5760010161166f565b634e487b7160e01b600052603260045260246000fd5b6040519061170e82610edd565b600a825269111039ba3937b5b29e9160b11b6020830152565b6040519061173482610edd565b601482527f22207374726f6b652d77696474683d2231222f3e0000000000000000000000006020830152565b6040519061176d82610edd565b601682527f22207374726f6b652d77696474683d22302e35222f3e000000000000000000006020830152565b6117a96040518061042052610e8f565b607161042051527f3c7376672076696577426f783d2230203020333030203330302220786d6c6e7360206104205101527f3d22687474703a2f2f7777772e77332e6f72672f323030302f737667223e203c60406104205101527f656c6c697073652063783d22313530222063793d22323330222072783d22313260606104205101527f30222072793d223135222066696c6c3d22000000000000000000000000000000608061042051015260405190816101405260e0820182811067ffffffffffffffff821117610eab576119c09260609160405252606060206101405101526060604061014051015260608061014051015260606080610140510152606060a0610140510152606060c06101405101526118c381611647565b61014051526118f2604051602081019083825260016040820152604081526118ea81610ef9565b519020611647565b602061014051015261191c604051602081019083825260026040820152604081526118ea81610ef9565b6040610140510152611946604051602081019083825260036040820152604081526118ea81610ef9565b6060610140510152611970604051602081019083825260046040820152604081526118ea81610ef9565b608061014051015261199a604051602081019083825260056040820152604081526118ea81610ef9565b60a06101405101526040516020810191825260066040820152604081526118ea81610ef9565b60c0610140510152610140515160e0526119d8611701565b6102205261014051516103e0526119f5604051806103c052610edd565b60166103c051527f22207374726f6b652d77696474683d22312e35222f3e0000000000000000000060206103c0510152611a35604051806103a052610f15565b60436103a051527f3c7265637420783d2236302220793d22313730222077696474683d223138302260206103a05101527f206865696768743d223630222072783d223130222072793d223130222066696c60406103a051015262361e9160e91b60606103a0510152602061014051015161018052611ab1611701565b6102c0526020610140510151610320526123166020611ace611727565b604051611ada81610f15565b604381527f3c7265637420783d2238352220793d22313230222077696474683d2231333022838201527f206865696768743d223530222072783d223130222072793d223130222066696c604082015262361e9160e91b60608201526040610140510151611b45611701565b604061014051015191611b56611727565b9360405195611b6487610ef9565b603187527f3c656c6c697073652063783d22313530222063793d22313230222072783d2236888801527f35222072793d223130222066696c6c3d220000000000000000000000000000006040880152606061014051015161020052611bc7611701565b6101a052606061014051015161046052611bdf611760565b61026052611bf36040518061016052610ef9565b603161016051527f3c7265637420783d223134362220793d223835222077696474683d2238222068886101605101527f65696768743d223335222066696c6c3d22000000000000000000000000000000604061016051015260806101405101516101e052611c5f611701565b6103005260806101405101516102a052611c77611760565b60a052611c8a6040518061036052610e8f565b606a61036051527f3c7061746820643d224d3135302c383520513135302c3735203135302c383520886103605101527f4d3134362c383520513135302c3735203135342c3835222066696c6c3d22236660406103605101527f666464353522207374726f6b653d222366666363303022207374726f6b652d7760606103605101526934b23a341e911891179f60b11b6080610360510152611d316040518061024052610ef9565b602661024051527f3c636972636c652063783d22313135222063793d223134352220723d2235222088610240510152653334b6361e9160d11b604061024051015260a0610140510151608052611d8d6040518061044052610ef9565b602961044051527f222f3e3c636972636c652063783d22313530222063793d223134352220723d2288610440510152681a91103334b6361e9160b91b604061044051015260a061014051015160c052611dec604051806102e052610ef9565b60296102e051527f222f3e3c636972636c652063783d22313835222063793d223134352220723d22886102e0510152681a91103334b6361e9160b91b60406102e051015260a061014051015161028052611e4c6040518061038052610edd565b600361038051526211179f60e91b88610380510152611e71604051806101c052610e8f565b60706101c051527f3c7061746820643d224d37302c313730204339302c313630203131302c313830886101c05101527f203133302c31373020433135302c313630203137302c313830203139302c313760406101c05101527f3020433231302c313630203233302c313830203235302c313730222066696c6c60606101c05101527f3d226e6f6e6522207374726f6b653d220000000000000000000000000000000060806101c051015260c061014051015161040052611f376040518061034052610ef9565b602b61034051527f22207374726f6b652d77696474683d223322207374726f6b652d6c696e656361886103405101526a381e913937bab73211179f60a91b6040610340510152611f8d6040518061012052610edd565b60066101205152651e17b9bb339f60d11b8861012051015287611fc3604051806101005261042051838151948593019101610de1565b610100510160e05190611fde825180938c8085019101610de1565b016102205190611ff6825180938c8085019101610de1565b016103e0519061200e825180938c8085019101610de1565b016103c05190612026825180938c8085019101610de1565b016103a0519061203e825180938c8085019101610de1565b016101805190612056825180938c8085019101610de1565b016102c0519061206e825180938c8085019101610de1565b016103205190612086825180938c8085019101610de1565b01612099825180938b8085019101610de1565b016120ac825180938a8085019101610de1565b016120bf82518093898085019101610de1565b016120d282518093888085019101610de1565b016120e582518093878085019101610de1565b016120f882518093868085019101610de1565b0161210b82518093858085019101610de1565b01610200519061212382518093858085019101610de1565b016101a0519061213b82518093858085019101610de1565b01610460519061215382518093858085019101610de1565b01610260519061216b82518093858085019101610de1565b01610160519061218382518093858085019101610de1565b016101e0519061219b82518093858085019101610de1565b0161030051906121b382518093858085019101610de1565b016102a051906121cb82518093858085019101610de1565b0160a051906121e282518093858085019101610de1565b0161036051906121fa82518093858085019101610de1565b01610240519061221282518093858085019101610de1565b016080519061222982518093858085019101610de1565b01610440519061224182518093858085019101610de1565b0160c0519061225882518093858085019101610de1565b016102e0519061227082518093858085019101610de1565b01610280519061228882518093858085019101610de1565b0161038051906122a082518093858085019101610de1565b016101c051906122b882518093858085019101610de1565b0161040051906122d082518093858085019101610de1565b0161034051906122e882518093858085019101610de1565b01610120519061230082518093858085019101610de1565b6101005191829101038091520161010051610f31565b610100519056fea26469706673582212200bd112c4886ad668366d4a58b32d3a629533ef31fdb87c2d6a45794cb26e906064736f6c63430008140033",
        "nonce": "0xae",
        "chainId": "0xaa36a7"
      },
      "additionalContracts": [],
      "isFixedGasLimit": false
    },
    {
      "hash": "0x272327d03d7328c7ce11cc77ce5de3b7171935b38250c8c8c84ff3bad814e09f",
      "transactionType": "CREATE",
      "contractName": "MoodNft",
      "contractAddress": "0x683132619b12f77858b2bec83c7e345e58bc7547",
      "function": null,
      "arguments": [
        "\"data:image/svg+xml;base64,PHN2ZyB2aWV3Qm94PSIwIDAgMjAwIDIwMCIgeG1sbnM9Imh0dHA6Ly93d3cudzMub3JnLzIwMDAvc3ZnIj4KICA8Y2lyY2xlIGN4PSIxMDAiIGN5PSIxMDAiIGZpbGw9InllbGxvdyIgcj0iNzgiIHN0cm9rZT0iYmxhY2siIHN0cm9rZS13aWR0aD0iMyIvPgogIDxnIGNsYXNzPSJleWVzIj4KICAgIDxjaXJjbGUgY3g9IjcwIiBjeT0iODIiIHI9IjEyIi8+CiAgICA8Y2lyY2xlIGN4PSIxMjciIGN5PSI4MiIgcj0iMTIiLz4KICA8L2c+CiAgPHBhdGggZD0ibTU1LjI5IDE0MC41M2MxNy40MS00Mi43MyA4Mi4yMS0yNi45IDgxLjUyLS43MyIgc3R5bGU9ImZpbGw6bm9uZTsgc3Ryb2tlOiBibGFjazsgc3Ryb2tlLXdpZHRoOiAzOyIvPgo8L3N2Zz4K\"",
        "\"data:image/svg+xml;base64,PHN2ZyB2aWV3Qm94PSIwIDAgMjAwIDIwMCIgd2lkdGg9IjQwMCIgIGhlaWdodD0iNDAwIiB4bWxucz0iaHR0cDovL3d3dy53My5vcmcvMjAwMC9zdmciPgogIDxjaXJjbGUgY3g9IjEwMCIgY3k9IjEwMCIgZmlsbD0ieWVsbG93IiByPSI3OCIgc3Ryb2tlPSJibGFjayIgc3Ryb2tlLXdpZHRoPSIzIi8+CiAgPGcgY2xhc3M9ImV5ZXMiPgogICAgPGNpcmNsZSBjeD0iNzAiIGN5PSI4MiIgcj0iMTIiLz4KICAgIDxjaXJjbGUgY3g9IjEyNyIgY3k9IjgyIiByPSIxMiIvPgogIDwvZz4KICA8cGF0aCBkPSJtMTM2LjgxIDExNi41M2MuNjkgMjYuMTctNjQuMTEgNDItODEuNTItLjczIiBzdHlsZT0iZmlsbDpub25lOyBzdHJva2U6IGJsYWNrOyBzdHJva2Utd2lkdGg6IDM7Ii8+Cjwvc3ZnPgo=\""
      ],
      "transaction": {
        "from": "0x28556cc7cba0a5af1170fb9ed4e634a811366e70",
        "gas": "0x2c43ea",
        "value": "0x0",
        "input": "0x608060405234620006585762001d71803803806200001d816200067d565b928339810190604081830312620006585780516001600160401b03919082811162000658578362000050918301620006a3565b906020938482015184811162000658576200006c9201620006a3565b90620000776200065d565b91600880845267135bdbd90813919560c21b86850152620000976200065d565b90600282526126a760f11b8783015284519386851162000642576000928354956001978888811c9816801562000637575b8b8910146200053b5781908b601f998a8111620005e1575b50508b908983116001146200057a5787926200056e575b5050600019600383901b1c191690881b1784555b8051908882116200055a5787548881811c911680156200054f575b8b8210146200053b57908188849311620004e8575b508a908883116001146200048357869262000477575b5050600019600383901b1c191690871b1786555b33156200045e5760068054336001600160a01b0319821681179092556001600160a01b03167f8be0079c531659141344cd1fd0a4f28419497f9722a3daafe3b4186f6b6457e08580a3826007558051908782116200044a5782548781811c911680156200043f575b8a8210146200042b57908187849311620003d8575b5089908783116001146200037457859262000368575b5050600019600383901b1c191690861b1790555b815194851162000354576009548481811c9116801562000349575b878210146200033557838111620002ec575b50859285116001146200028357939450849291908362000277575b50501b916000199060031b1c1916176009555b60405161165b9081620007168239f35b01519250388062000254565b6009815285812093958591601f198316915b88838310620002d15750505010620002b7575b505050811b0160095562000267565b015160001960f88460031b161c19169055388080620002a8565b85870151885590960195948501948793509081019062000295565b600982528682208480880160051c8201928989106200032b575b0160051c019085905b8281106200031f57505062000239565b8381550185906200030f565b9250819262000306565b634e487b7160e01b82526022600452602482fd5b90607f169062000227565b634e487b7160e01b81526041600452602490fd5b015190503880620001f8565b8486528a86208994509190601f198416875b8d828210620003c15750508411620003a7575b505050811b0190556200020c565b015160001960f88460031b161c1916905538808062000399565b8385015186558c9790950194938401930162000386565b9091508385528985208780850160051c8201928c861062000421575b918a91869594930160051c01915b82811062000412575050620001e2565b8781558594508a910162000402565b92508192620003f4565b634e487b7160e01b85526022600452602485fd5b90607f1690620001cd565b634e487b7160e01b84526041600452602484fd5b604051631e4fbdf760e01b815260048101849052602490fd5b01519050388062000151565b8987528b87208a94509190601f198416888e5b828210620004d05750508411620004b6575b505050811b01865562000165565b015160001960f88460031b161c19169055388080620004a8565b8385015186558d979095019493840193018e62000496565b9091508886528a86208880850160051c8201928d861062000531575b918b91869594930160051c01915b828110620005225750506200013b565b8881558594508b910162000512565b9250819262000504565b634e487b7160e01b86526022600452602486fd5b90607f169062000126565b634e487b7160e01b85526041600452602485fd5b015190503880620000f7565b8780528c88208b94509190601f198416898f5b828210620005c75750508411620005ad575b505050811b0184556200010b565b015160001960f88460031b161c191690553880806200059f565b8484015186558e979095019493840193908101906200058d565b90919250878052898289209181860160051c83019386106200062d575b918c91869594930160051c01915b8281106200061e57508d9150620000e0565b8981558594508c91016200060c565b92508192620005fe565b97607f1697620000c8565b634e487b7160e01b600052604160045260246000fd5b600080fd5b60408051919082016001600160401b038111838210176200064257604052565b6040519190601f01601f191682016001600160401b038111838210176200064257604052565b919080601f84011215620006585782516001600160401b0381116200064257602090620006d9601f8201601f191683016200067d565b92818452828287010111620006585760005b8181106200070157508260009394955001015290565b8581018301518482018401528201620006eb56fe608060408181526004918236101561001657600080fd5b600092833560e01c91826301ffc9a714610b405750816306fdde0314610b22578163081812fc14610afa578163095ea7b314610a1f57816323b872dd14610a0757816342842e0e146109d85781635de0682f146109ba5781636352211e1461098a5781636e02007d1461096b57816370a0823114610916578163715018a6146108c2578163759d1612146108995781638da5cb5b1461087157816395d89b411461076a578163a22cb465146106c8578163b88d4fde14610632578163c1a147a01461057a578163c2229fea1461050d578163c87b56dd14610229578163e985e9c5146101db578163f2fde38b1461014e575063fc8421211461011757600080fd5b3461014a578160031936011261014a5761014690610133610e90565b9051918291602083526020830190610bce565b0390f35b5080fd5b9050346101d75760203660031901126101d757610169610bf3565b90610172610cc9565b6001600160a01b038092169283156101c1575050600654826001600160a01b0319821617600655167f8be0079c531659141344cd1fd0a4f28419497f9722a3daafe3b4186f6b6457e08380a380f35b51631e4fbdf760e01b8152908101849052602490fd5b8280fd5b50503461014a578060031936011261014a5760ff816020936101fb610bf3565b610203610c0e565b6001600160a01b0391821683526005875283832091168252855220549151911615158152f35b83833461014a576020918260031936011261050a5783356001600160a01b0361025182611119565b16156104fa5761025f610e90565b908252600a845260ff838320541660028110156104e7576001146104d9575b82519167ffffffffffffffff91838501838111858210176104c6578552601d8452858401927f646174613a6170706c69636174696f6e2f6a736f6e3b6261736536342c00000084526103f860be6102d3610cf5565b8851948591683d913730b6b2911d1160b91b8c8401526102fd8c8251928391602987019101610bab565b82017f222c20226465736372697074696f6e223a22416e204e4654207468617420726560298201527f666c6563747320746865206d6f6f64206f6620746865206f776e65722c20313060498201527f3025206f6e20436861696e21222c20000000000000000000000000000000000060698201527f2261747472696275746573223a205b7b2274726169745f74797065223a20226d60788201527f6f6f64696e657373222c202276616c7565223a203130307d5d2c2022696d616760988201526332911d1160e11b60b88201526103de8c835193849160bc85019101610bab565b0161227d60f01b60bc82015203609e810185520183610c8b565b85519260608401918211848310176104b35761048488610146896104a4838b8b6104728c8c8c88528782527f4142434445464748494a4b4c4d4e4f505152535455565758595a616263646566868301527f6768696a6b6c6d6e6f707172737475767778797a303132333435363738392b2f888301526114de565b90855198899351809286860190610bab565b820161049882518093868085019101610bab565b01038087520185610c8b565b51928284938452830190610bce565b634e487b7160e01b815260418952602490fd5b634e487b7160e01b835260418852602483fd5b506104e2610ddc565b61027e565b634e487b7160e01b835260218652602483fd5b82516336faf6d760e11b81528590fd5b80fd5b83903461014a578160031936011261014a576007549061052d82336112a0565b600754906001820180921161056757506007557f72102923c3d44433bd725cb2c744a4c92a536ad249b665dec9853a16ed6655258280a280f35b634e487b7160e01b845260119052602483fd5b9050346101d75760203660031901126101d75780359061059982610f44565b6001600160a01b03908116331415908161061d575b5061060f57818452600a60205260ff83852054169060028210156105fc57506105e8578252600a6020528120805460ff1916600117905580f35b8252600a6020528120805460ff1916905580f35b634e487b7160e01b855260219052602484fd5b82516385046ca760e01b8152fd5b33915061062984611119565b161415386105ae565b919050346101d75760803660031901126101d75761064e610bf3565b610656610c0e565b60443591856064359567ffffffffffffffff871161014a573660238801121561014a578601359561069261068988610cad565b96519687610c8b565b868652366024888301011161014a57866106c59760246020930183890137860101526106bf838383610f68565b33611154565b80f35b919050346101d757806003193601126101d7576106e3610bf3565b9060243591821515809303610766576001600160a01b03169283156107515750338452600560205280842083855260205280842060ff1981541660ff8416179055519081527f17307eab39ab6107e8899845ad3d59bd9653f200f220920489ca2b5937696c3160203392a380f35b836024925191630b61174360e31b8352820152fd5b8480fd5b82843461050a578060031936011261050a578151918160019283549384811c91818616958615610867575b6020968785108114610854578899509688969785829a52918260001461082d5750506001146107d2575b50505061014692916104a4910385610c8b565b91908693508083527fb10e2d527612073b26eecdfd717e6a320cf44b4afac2b0732d9fcbe2b7fa0cf65b82841061081557505050820101816104a46101466107bf565b8054848a0186015288955087949093019281016107fc565b60ff19168782015293151560051b860190930193508492506104a4915061014690506107bf565b634e487b7160e01b835260228a52602483fd5b92607f1692610795565b50503461014a578160031936011261014a576020906001600160a01b03600654169051908152f35b83903461014a57602036600319011261014a576108b4610bf3565b9061052d60075480936112a0565b833461050a578060031936011261050a576108db610cc9565b806001600160a01b0360065481198116600655167f8be0079c531659141344cd1fd0a4f28419497f9722a3daafe3b4186f6b6457e08280a380f35b82843461050a57602036600319011261050a576001600160a01b03610939610bf3565b169283156109565750806020938392526003845220549051908152f35b91516322718ad960e21b815291820152602490fd5b50503461014a578160031936011261014a576020906007549051908152f35b82843461050a57602036600319011261050a57506001600160a01b036109b260209335611119565b915191168152f35b50503461014a578160031936011261014a5761014690610133610ddc565b50503461014a576106c5906109ec36610c24565b919251926109f984610c59565b8584526106bf838383610f68565b833461050a576106c5610a1936610c24565b91610f68565b919050346101d757806003193601126101d757610a3a610bf3565b91602435610a4781611119565b33151580610ae7575b80610abf575b610aa95781906001600160a01b03809616958691167f8c5be1e5ebec7d5bd14f71427d1e84f3dd0314c0f7b2291e5b200ac8c7c3b9258880a484526020528220906001600160a01b031982541617905580f35b835163a9fbf51f60e01b81523381850152602490fd5b506001600160a01b0381168652600560205283862033875260205260ff848720541615610a56565b50336001600160a01b0382161415610a50565b82843461050a57602036600319011261050a57506001600160a01b036109b260209335610f44565b50503461014a578160031936011261014a5761014690610133610cf5565b8491346101d75760203660031901126101d7573563ffffffff60e01b81168091036101d757602092506380ac58cd60e01b8114908115610b9a575b8115610b89575b5015158152f35b6301ffc9a760e01b14905083610b82565b635b5e139f60e01b81149150610b7b565b60005b838110610bbe5750506000910152565b8181015183820152602001610bae565b90602091610be781518092818552858086019101610bab565b601f01601f1916010190565b600435906001600160a01b0382168203610c0957565b600080fd5b602435906001600160a01b0382168203610c0957565b6060906003190112610c09576001600160a01b03906004358281168103610c0957916024359081168103610c09579060443590565b6020810190811067ffffffffffffffff821117610c7557604052565b634e487b7160e01b600052604160045260246000fd5b90601f8019910116810190811067ffffffffffffffff821117610c7557604052565b67ffffffffffffffff8111610c7557601f01601f191660200190565b6001600160a01b03600654163303610cdd57565b60405163118cdaa760e01b8152336004820152602490fd5b604051906000805490600182811c90808416938415610dd2575b6020948584108114610dbe5783885287949392918115610d9e5750600114610d42575b5050610d4092500383610c8b565b565b60008080527f290decd9548b62a8d60345a988386fc84ba6bc95484008f6362f93160ef3e56395935091905b818310610d86575050610d4093508201013880610d32565b85548884018501529485019487945091830191610d6e565b915050610d4094925060ff191682840152151560051b8201013880610d32565b634e487b7160e01b85526022600452602485fd5b91607f1691610d0f565b60405190600060085490600182811c90808416938415610e86575b6020948584108114610dbe5783885287949392918115610d9e5750600114610e27575050610d4092500383610c8b565b9093915060086000527ff3f7a9fe364faab93b216da50a3214154f22a0a2b415b23a84c8169e8b636ee3936000915b818310610e6e575050610d4093508201013880610d32565b85548884018501529485019487945091830191610e56565b91607f1691610df7565b60405190600060095490600182811c90808416938415610f3a575b6020948584108114610dbe5783885287949392918115610d9e5750600114610edb575050610d4092500383610c8b565b9093915060096000527f6e1540171b6c0c960b71a7020d9f60077f6af931a8bbf590da0223dacf75c7af936000915b818310610f22575050610d4093508201013880610d32565b85548884018501529485019487945091830191610f0a565b91607f1691610eab565b610f4d81611119565b5060005260046020526001600160a01b036040600020541690565b90916001600160a01b038093169283156111005760009282845282602095600287526040968488882054169687913315158061106a575b509060027fddf252ad1be2c89b69c2b068fc378daa952ba7f163c4a11628f55a4df523b3ef9284611032575b858352600381528b83208054600101905586835252898120805473ffffffffffffffffffffffffffffffffffffffff19168517905580a416928383036110115750505050565b6064945051926364283d7b60e01b8452600484015260248301526044820152fd5b61105387600052600460205260406000206001600160a01b03198154169055565b848352600381528b83208054600019019055610fcb565b919394509150806110bf575b1561108657859291879138610f9f565b8786886110a3576024915190637e27328960e01b82526004820152fd5b604491519063177e802f60e01b82523360048301526024820152fd5b5033871480156110e4575b806110765750858252600481523385898420541614611076565b5086825260058152878220338352815260ff88832054166110ca565b604051633250574960e11b815260006004820152602490fd5b8060005260026020526001600160a01b036040600020541690811561113c575090565b60249060405190637e27328960e01b82526004820152fd5b90939192833b611166575b5050505050565b6001600160a01b039592939495809516946040519681630a85bd0160e11b94858a52166004890152166024870152604486015260806064860152846111b16020946084830190610bce565b039483816000978189895af186918161125c575b50611226575050503d60001461121d573d6111df81610cad565b906111ed6040519283610c8b565b81528093823d92013e5b8251928361121857604051633250574960e11b815260048101849052602490fd5b019050fd5b606092506111f7565b919450915063ffffffff60e01b16036112445750388080808061115f565b60249060405190633250574960e11b82526004820152fd5b9091508481813d8311611299575b6112748183610c8b565b8101031261129557516001600160e01b0319811681036112955790386111c5565b8680fd5b503d61126a565b604080516112ad81610c59565b6000938482526001600160a01b03918285169485156114c6578287526020936002855285882054168387821515928361148e575b818b5260038852888b2080546001019055828b5260028852888b20805473ffffffffffffffffffffffffffffffffffffffff1916831790557fddf252ad1be2c89b69c2b068fc378daa952ba7f163c4a11628f55a4df523b3ef8b80a4611476573b61134f575b505050505050565b8261138d918596979894955180938192630a85bd0160e11b968784523360048501528c60248501526044840152608060648401526084830190610bce565b03818a8a5af1879181611432575b506113fb575050503d6000146113f2573d6113b581610cad565b906113c284519283610c8b565b81528094823d92013e5b835193846113ec578251633250574960e11b815260048101859052602490fd5b84925001fd5b606093506113cc565b919550915063ffffffff60e01b160361141b575050388080808080611347565b602492505190633250574960e11b82526004820152fd5b9091508481813d831161146f575b61144a8183610c8b565b8101031261146b57516001600160e01b03198116810361146b57903861139b565b8780fd5b503d611440565b84516339e3563760e11b815260048101889052602490fd5b6114af83600052600460205260406000206001600160a01b03198154169055565b808b5260038852888b2080546000190190556112e1565b8451633250574960e11b815260048101889052602490fd5b8051156116105780516002918282018092116115fa5760038092049384841b947f3fffffffffffffffffffffffffffffffffffffffffffffffffffffffffffffff8116036115fa579261154961153386610cad565b956115416040519788610c8b565b808752610cad565b6020860190601f190136823793829183518401906020820192835194600085525b8381106115a95750505050525106806001146115965760021461158b575090565b603d90600019015390565b50603d9081600019820153600119015390565b87600491999293949901918251600190603f9082828260121c16880101518453828282600c1c16880101518385015382828260061c168801015188850153168501015189820153019792919061156a565b634e487b7160e01b600052601160045260246000fd5b505060405161161e81610c59565b600081529056fea2646970667358221220f3fce4f28a603258f8a53aa695ff538c00aba21943452324b34ea6bfc3f4e60364736f6c63430008140033000000000000000000000000000000000000000000000000000000000000004000000000000000000000000000000000000000000000000000000000000002800000000000000000000000000000000000000000000000000000000000000202646174613a696d6167652f7376672b786d6c3b6261736536342c50484e325a79423261575633516d393450534977494441674d6a4177494449774d43496765473173626e4d39496d6830644841364c79393364336375647a4d7562334a6e4c7a49774d44417663335a6e496a344b4943413859326c795932786c49474e34505349784d44416949474e35505349784d44416949475a7062477739496e6c6c6247787664794967636a30694e7a676949484e30636d39725a543069596d78685932736949484e30636d39725a53313361575230614430694d79497650676f674944786e49474e7359584e7a50534a6c6557567a496a344b494341674944786a61584a6a6247556759336739496a63774969426a655430694f44496949484939496a45794969382b436941674943413859326c795932786c49474e34505349784d6a636949474e35505349344d694967636a30694d5449694c7a344b494341384c32632b4369416750484268644767675a443069625455314c6a4935494445304d4334314d324d784e7934304d5330304d6934334d7941344d6934794d5330794e693435494467784c6a55794c5334334d7949676333523562475539496d5a7062477736626d39755a547367633352796232746c4f6942696247466a617a7367633352796232746c4c5864705a48526f4f69417a4f79497650676f384c334e325a7a344b0000000000000000000000000000000000000000000000000000000000000000000000000000000000000000000000000000000000000000000000000222646174613a696d6167652f7376672b786d6c3b6261736536342c50484e325a79423261575633516d393450534977494441674d6a4177494449774d43496764326c6b64476739496a51774d4349674947686c6157646f644430694e4441774969423462577875637a30696148523063446f764c336433647935334d793576636d63764d6a41774d43397a646d636950676f674944786a61584a6a6247556759336739496a45774d43496759336b39496a45774d4349675a6d6c7362443069655756736247393349694279505349334f434967633352796232746c50534a696247466a61794967633352796232746c4c5864705a48526f5053497a4969382b43694167504763675932786863334d39496d56355a584d6950676f674943416750474e70636d4e735a53426a654430694e7a416949474e35505349344d694967636a30694d5449694c7a344b494341674944786a61584a6a6247556759336739496a45794e79496759336b39496a677949694279505349784d69497650676f67494477765a7a344b49434138634746306143426b50534a744d544d324c6a6778494445784e6934314d324d754e6a6b674d6a59754d5463744e6a51754d5445674e4449744f4445754e5449744c6a637a4969427a64486c735a5430695a6d6c73624470756232356c4f79427a64484a766132553649474a7359574e724f79427a64484a766132557464326c6b6447673649444d374969382b436a777663335a6e50676f3d000000000000000000000000000000000000000000000000000000000000",
        "nonce": "0xaf",
        "chainId": "0xaa36a7"
      },
      "additionalContracts": [],
      "isFixedGasLimit": false
    },
    {
      "hash": "0x7eb192735290071e725255335cc09ef82d519eb54b91e2a02da5b1422a9d649e",
      "transactionType": "CALL",
      "contractName": "CakeNft",
      "contractAddress": "0xcc935538a7af54051d9d8561262a71eb1d2a706d",
      "function": "bakeCake()",
      "arguments": [],
      "transaction": {
        "from": "0x28556cc7cba0a5af1170fb9ed4e634a811366e70",
        "to": "0xcc935538a7af54051d9d8561262a71eb1d2a706d",
        "gas": "0x1a5878",
        "value": "0x0",
        "input": "0x04bc2d45",
        "nonce": "0xb0",
        "chainId": "0xaa36a7"
      },
      "additionalContracts": [],
      "isFixedGasLimit": false
    },
    {
      "hash": "0xbeebd7c3421ed26740b8a6c84ae402077ffd0a88534587b5dc2f3ec35dc359b5",
      "transactionType": "CALL",
      "contractName": "CakeNft",
      "contractAddress": "0xcc935538a7af54051d9d8561262a71eb1d2a706d",
      "function": "approve(address,uint256)",
      "arguments": [
        "0xdBa9D270059eB6d21D61B7c58a95d87C4D872305",
        "0"
      ],
      "transaction": {
        "from": "0x28556cc7cba0a5af1170fb9ed4e634a811366e70",
        "to": "0xcc935538a7af54051d9d8561262a71eb1d2a706d",
        "gas": "0x104c6",
        "value": "0x0",
        "input": "0x095ea7b3000000000000000000000000dba9d270059eb6d21d61b7c58a95d87c4d8723050000000000000000000000000000000000000000000000000000000000000000",
        "nonce": "0xb1",
        "chainId": "0xaa36a7"
      },
      "additionalContracts": [],
      "isFixedGasLimit": false
    },
    {
      "hash": "0x3dc958356531985a4f006f7e9c6f9eaca8223885e73bf044c670ff88370c8c63",
      "transactionType": "CALL",
      "contractName": "NftMarketplace",
      "contractAddress": "0xdba9d270059eb6d21d61b7c58a95d87c4d872305",
      "function": "listItem(address,uint256,uint256)",
      "arguments": [
        "0xcC935538a7af54051d9D8561262a71eB1d2A706d",
        "0",
        "10000000"
      ],
      "transaction": {
        "from": "0x28556cc7cba0a5af1170fb9ed4e634a811366e70",
        "to": "0xdba9d270059eb6d21d61b7c58a95d87c4d872305",
        "gas": "0x1a55a",
        "value": "0x0",
        "input": "0x89bfd38f000000000000000000000000cc935538a7af54051d9d8561262a71eb1d2a706d00000000000000000000000000000000000000000000000000000000000000000000000000000000000000000000000000000000000000000000000000989680",
        "nonce": "0xb2",
        "chainId": "0xaa36a7"
      },
      "additionalContracts": [],
      "isFixedGasLimit": false
    },
    {
      "hash": "0xd156a999c32e9d8773a2a9fbb27e7eb684d5af2fc65c4e919d346b14c1584782",
      "transactionType": "CALL",
      "contractName": "CakeNft",
      "contractAddress": "0xcc935538a7af54051d9d8561262a71eb1d2a706d",
      "function": "bakeCake()",
      "arguments": [],
      "transaction": {
        "from": "0x28556cc7cba0a5af1170fb9ed4e634a811366e70",
        "to": "0xcc935538a7af54051d9d8561262a71eb1d2a706d",
        "gas": "0x199517",
        "value": "0x0",
        "input": "0x04bc2d45",
        "nonce": "0xb3",
        "chainId": "0xaa36a7"
      },
      "additionalContracts": [],
      "isFixedGasLimit": false
    },
    {
      "hash": "0x10cf436bdcc6d82a44e94f0f5c69ab378ec06b29c8a4347ae492df756b954b9d",
      "transactionType": "CALL",
      "contractName": "CakeNft",
      "contractAddress": "0xcc935538a7af54051d9d8561262a71eb1d2a706d",
      "function": "approve(address,uint256)",
      "arguments": [
        "0xdBa9D270059eB6d21D61B7c58a95d87C4D872305",
        "1"
      ],
      "transaction": {
        "from": "0x28556cc7cba0a5af1170fb9ed4e634a811366e70",
        "to": "0xcc935538a7af54051d9d8561262a71eb1d2a706d",
        "gas": "0x11430",
        "value": "0x0",
        "input": "0x095ea7b3000000000000000000000000dba9d270059eb6d21d61b7c58a95d87c4d8723050000000000000000000000000000000000000000000000000000000000000001",
        "nonce": "0xb4",
        "chainId": "0xaa36a7"
      },
      "additionalContracts": [],
      "isFixedGasLimit": false
    },
    {
      "hash": "0xa0cca3ddfd190e751973522a485564d42b5801ad6dfa91ab6e2d8bf62877494c",
      "transactionType": "CALL",
      "contractName": "NftMarketplace",
      "contractAddress": "0xdba9d270059eb6d21d61b7c58a95d87c4d872305",
      "function": "listItem(address,uint256,uint256)",
      "arguments": [
        "0xcC935538a7af54051d9D8561262a71eB1d2A706d",
        "1",
        "10000000"
      ],
      "transaction": {
        "from": "0x28556cc7cba0a5af1170fb9ed4e634a811366e70",
        "to": "0xdba9d270059eb6d21d61b7c58a95d87c4d872305",
        "gas": "0x1be35",
        "value": "0x0",
        "input": "0x89bfd38f000000000000000000000000cc935538a7af54051d9d8561262a71eb1d2a706d00000000000000000000000000000000000000000000000000000000000000010000000000000000000000000000000000000000000000000000000000989680",
        "nonce": "0xb5",
        "chainId": "0xaa36a7"
      },
      "additionalContracts": [],
      "isFixedGasLimit": false
    },
    {
      "hash": "0x0d0cdc6075962ea822b36468098cbc7532147fe3da42dbc26c356aa5a05ca271",
      "transactionType": "CALL",
      "contractName": "CakeNft",
      "contractAddress": "0xcc935538a7af54051d9d8561262a71eb1d2a706d",
      "function": "bakeCake()",
      "arguments": [],
      "transaction": {
        "from": "0x28556cc7cba0a5af1170fb9ed4e634a811366e70",
        "to": "0xcc935538a7af54051d9d8561262a71eb1d2a706d",
        "gas": "0x199517",
        "value": "0x0",
        "input": "0x04bc2d45",
        "nonce": "0xb6",
        "chainId": "0xaa36a7"
      },
      "additionalContracts": [],
      "isFixedGasLimit": false
    },
    {
      "hash": "0x9111018dea4cdace2e7f7340d459eb03a3e53c70a98815cac6e33fc52016b5a5",
      "transactionType": "CALL",
      "contractName": "CakeNft",
      "contractAddress": "0xcc935538a7af54051d9d8561262a71eb1d2a706d",
      "function": "approve(address,uint256)",
      "arguments": [
        "0xdBa9D270059eB6d21D61B7c58a95d87C4D872305",
        "2"
      ],
      "transaction": {
        "from": "0x28556cc7cba0a5af1170fb9ed4e634a811366e70",
        "to": "0xcc935538a7af54051d9d8561262a71eb1d2a706d",
        "gas": "0x11430",
        "value": "0x0",
        "input": "0x095ea7b3000000000000000000000000dba9d270059eb6d21d61b7c58a95d87c4d8723050000000000000000000000000000000000000000000000000000000000000002",
        "nonce": "0xb7",
        "chainId": "0xaa36a7"
      },
      "additionalContracts": [],
      "isFixedGasLimit": false
    },
    {
      "hash": "0x218d2232ff22d5534520646f9b7af26d536e55e5c91e54bc3caa296221dbe0ba",
      "transactionType": "CALL",
      "contractName": "NftMarketplace",
      "contractAddress": "0xdba9d270059eb6d21d61b7c58a95d87c4d872305",
      "function": "listItem(address,uint256,uint256)",
      "arguments": [
        "0xcC935538a7af54051d9D8561262a71eB1d2A706d",
        "2",
        "10000000"
      ],
      "transaction": {
        "from": "0x28556cc7cba0a5af1170fb9ed4e634a811366e70",
        "to": "0xdba9d270059eb6d21d61b7c58a95d87c4d872305",
        "gas": "0x1be35",
        "value": "0x0",
        "input": "0x89bfd38f000000000000000000000000cc935538a7af54051d9d8561262a71eb1d2a706d00000000000000000000000000000000000000000000000000000000000000020000000000000000000000000000000000000000000000000000000000989680",
        "nonce": "0xb8",
        "chainId": "0xaa36a7"
      },
      "additionalContracts": [],
      "isFixedGasLimit": false
    },
    {
      "hash": "0xc61bed8047cedb23f7b6d234cc18d2aa6737b20eb1a47600128881a2139e9715",
      "transactionType": "CALL",
      "contractName": "CakeNft",
      "contractAddress": "0xcc935538a7af54051d9d8561262a71eb1d2a706d",
      "function": "bakeCake()",
      "arguments": [],
      "transaction": {
        "from": "0x28556cc7cba0a5af1170fb9ed4e634a811366e70",
        "to": "0xcc935538a7af54051d9d8561262a71eb1d2a706d",
        "gas": "0x199517",
        "value": "0x0",
        "input": "0x04bc2d45",
        "nonce": "0xb9",
        "chainId": "0xaa36a7"
      },
      "additionalContracts": [],
      "isFixedGasLimit": false
    },
    {
      "hash": "0x40cea3928f49b368c2e9edb7168b38045e8cd9e8815c3eb26b759d453fb16463",
      "transactionType": "CALL",
      "contractName": "CakeNft",
      "contractAddress": "0xcc935538a7af54051d9d8561262a71eb1d2a706d",
      "function": "approve(address,uint256)",
      "arguments": [
        "0xdBa9D270059eB6d21D61B7c58a95d87C4D872305",
        "3"
      ],
      "transaction": {
        "from": "0x28556cc7cba0a5af1170fb9ed4e634a811366e70",
        "to": "0xcc935538a7af54051d9d8561262a71eb1d2a706d",
        "gas": "0x11430",
        "value": "0x0",
        "input": "0x095ea7b3000000000000000000000000dba9d270059eb6d21d61b7c58a95d87c4d8723050000000000000000000000000000000000000000000000000000000000000003",
        "nonce": "0xba",
        "chainId": "0xaa36a7"
      },
      "additionalContracts": [],
      "isFixedGasLimit": false
    },
    {
      "hash": "0x4e7975212631873dd237005d76aefa8153bbab7aea06ff9b51a600469b946355",
      "transactionType": "CALL",
      "contractName": "NftMarketplace",
      "contractAddress": "0xdba9d270059eb6d21d61b7c58a95d87c4d872305",
      "function": "listItem(address,uint256,uint256)",
      "arguments": [
        "0xcC935538a7af54051d9D8561262a71eB1d2A706d",
        "3",
        "10000000"
      ],
      "transaction": {
        "from": "0x28556cc7cba0a5af1170fb9ed4e634a811366e70",
        "to": "0xdba9d270059eb6d21d61b7c58a95d87c4d872305",
        "gas": "0x1be35",
        "value": "0x0",
        "input": "0x89bfd38f000000000000000000000000cc935538a7af54051d9d8561262a71eb1d2a706d00000000000000000000000000000000000000000000000000000000000000030000000000000000000000000000000000000000000000000000000000989680",
        "nonce": "0xbb",
        "chainId": "0xaa36a7"
      },
      "additionalContracts": [],
      "isFixedGasLimit": false
    },
    {
      "hash": "0x847978a32966c166667efd4950eda8432efc92dddabc1313e99ff445c0a3d7e6",
      "transactionType": "CALL",
      "contractName": "CakeNft",
      "contractAddress": "0xcc935538a7af54051d9d8561262a71eb1d2a706d",
      "function": "bakeCake()",
      "arguments": [],
      "transaction": {
        "from": "0x28556cc7cba0a5af1170fb9ed4e634a811366e70",
        "to": "0xcc935538a7af54051d9d8561262a71eb1d2a706d",
        "gas": "0x199517",
        "value": "0x0",
        "input": "0x04bc2d45",
        "nonce": "0xbc",
        "chainId": "0xaa36a7"
      },
      "additionalContracts": [],
      "isFixedGasLimit": false
    },
    {
      "hash": "0x00bc88335d7a6b72d50ee7041ddc47297ddffa82ddbbf548ba94bf8bfca60f75",
      "transactionType": "CALL",
      "contractName": "MoodNft",
      "contractAddress": "0x683132619b12f77858b2bec83c7e345e58bc7547",
      "function": "mintNftTo(address)",
      "arguments": [
        "0x28556Cc7CBa0A5AF1170fB9eD4E634a811366E70"
      ],
      "transaction": {
        "from": "0x28556cc7cba0a5af1170fb9ed4e634a811366e70",
        "to": "0x683132619b12f77858b2bec83c7e345e58bc7547",
        "gas": "0x20df7",
        "value": "0x0",
        "input": "0x759d161200000000000000000000000028556cc7cba0a5af1170fb9ed4e634a811366e70",
        "nonce": "0xbd",
        "chainId": "0xaa36a7"
      },
      "additionalContracts": [],
      "isFixedGasLimit": false
    },
    {
      "hash": "0x523b1c074d78f7f71ad8d0c568df854b081340bbb5d0269e3f76c99b156f6834",
      "transactionType": "CALL",
      "contractName": "MoodNft",
      "contractAddress": "0x683132619b12f77858b2bec83c7e345e58bc7547",
      "function": "mintNftTo(address)",
      "arguments": [
        "0x12ff199bbc384dDa90e66fBFc3b4D95bB922bF06"
      ],
      "transaction": {
        "from": "0x28556cc7cba0a5af1170fb9ed4e634a811366e70",
        "to": "0x683132619b12f77858b2bec83c7e345e58bc7547",
        "gas": "0x1ba8f",
        "value": "0x0",
        "input": "0x759d161200000000000000000000000012ff199bbc384dda90e66fbfc3b4d95bb922bf06",
        "nonce": "0xbe",
        "chainId": "0xaa36a7"
      },
      "additionalContracts": [],
      "isFixedGasLimit": false
    },
    {
      "hash": "0x2169b23c86209151973b96dbb4924ce808e773b2f206bd93d2e6f439f326cb78",
      "transactionType": "CALL",
      "contractName": "MockUSDC",
      "contractAddress": "0x92dde23845a3518e577001dfaa1095ec4d5725f4",
      "function": "mint(address,uint256)",
      "arguments": [
        "0x28556Cc7CBa0A5AF1170fB9eD4E634a811366E70",
        "100000000"
      ],
      "transaction": {
        "from": "0x28556cc7cba0a5af1170fb9ed4e634a811366e70",
        "to": "0x92dde23845a3518e577001dfaa1095ec4d5725f4",
        "gas": "0x16f70",
        "value": "0x0",
        "input": "0x40c10f1900000000000000000000000028556cc7cba0a5af1170fb9ed4e634a811366e700000000000000000000000000000000000000000000000000000000005f5e100",
        "nonce": "0xbf",
        "chainId": "0xaa36a7"
      },
      "additionalContracts": [],
      "isFixedGasLimit": false
    },
    {
      "hash": "0x4db8d9ff7e66f82ed0e3bb0f92cb61217105ee07bf404c8b37b8d0cf26591e1d",
      "transactionType": "CALL",
      "contractName": "MockUSDC",
      "contractAddress": "0x92dde23845a3518e577001dfaa1095ec4d5725f4",
      "function": "mint(address,uint256)",
      "arguments": [
        "0x12ff199bbc384dDa90e66fBFc3b4D95bB922bF06",
        "100000000"
      ],
      "transaction": {
        "from": "0x28556cc7cba0a5af1170fb9ed4e634a811366e70",
        "to": "0x92dde23845a3518e577001dfaa1095ec4d5725f4",
        "gas": "0x1235c",
        "value": "0x0",
        "input": "0x40c10f1900000000000000000000000012ff199bbc384dda90e66fbfc3b4d95bb922bf060000000000000000000000000000000000000000000000000000000005f5e100",
        "nonce": "0xc0",
        "chainId": "0xaa36a7"
      },
      "additionalContracts": [],
      "isFixedGasLimit": false
    },
    {
      "hash": "0xe45ee38411401406da0b83f787afc2d657e93b3a19310c1c3a91a15e12194ac0",
      "transactionType": "CALL",
      "contractName": "MockUSDC",
      "contractAddress": "0x92dde23845a3518e577001dfaa1095ec4d5725f4",
      "function": "mint(address,uint256)",
      "arguments": [
        "0x28556Cc7CBa0A5AF1170fB9eD4E634a811366E70",
        "100000000"
      ],
      "transaction": {
        "from": "0x28556cc7cba0a5af1170fb9ed4e634a811366e70",
        "to": "0x92dde23845a3518e577001dfaa1095ec4d5725f4",
        "gas": "0xb6e8",
        "value": "0x0",
        "input": "0x40c10f1900000000000000000000000028556cc7cba0a5af1170fb9ed4e634a811366e700000000000000000000000000000000000000000000000000000000005f5e100",
        "nonce": "0xc1",
        "chainId": "0xaa36a7"
      },
      "additionalContracts": [],
      "isFixedGasLimit": false
    }
  ],
  "receipts": [
    {
      "status": "0x1",
      "cumulativeGasUsed": "0x1c06ec7",
      "logs": [],
      "logsBloom": "0x00000000000000000000000000000000000000000000000000000000000000000000000000000000000000000000000000000000000000000000000000000000000000000000000000000000000000000000000000000000000000000000000000000000000000000000000000000000000000000000000000000000000000000000000000000000000000000000000000000000000000000000000000000000000000000000000000000000000000000000000000000000000000000000000000000000000000000000000000000000000000000000000000000000000000000000000000000000000000000000000000000000000000000000000000000000",
      "type": "0x2",
      "transactionHash": "0xc5d1737e9f8cca74f726a0060e3bf88b2e59fded2f70fa0146b6e77b18d065ef",
      "transactionIndex": "0xda",
      "blockHash": "0xc7c40cb57d2145933facfb10c3e3cf1f614ad6291ba464c737201bcc681bf8fd",
      "blockNumber": "0x7fe338",
      "gasUsed": "0x7dd34",
      "effectiveGasPrice": "0xa64e5f",
      "from": "0x28556cc7cba0a5af1170fb9ed4e634a811366e70",
      "to": null,
      "contractAddress": "0x92dde23845a3518e577001dfaa1095ec4d5725f4"
    },
    {
      "status": "0x1",
      "cumulativeGasUsed": "0x1500dac",
      "logs": [],
      "logsBloom": "0x00000000000000000000000000000000000000000000000000000000000000000000000000000000000000000000000000000000000000000000000000000000000000000000000000000000000000000000000000000000000000000000000000000000000000000000000000000000000000000000000000000000000000000000000000000000000000000000000000000000000000000000000000000000000000000000000000000000000000000000000000000000000000000000000000000000000000000000000000000000000000000000000000000000000000000000000000000000000000000000000000000000000000000000000000000000",
      "type": "0x2",
      "transactionHash": "0xdc3467705a9ad7b534076f1194c2ea5ccff6ab2767c9c0b621d93508b0c7f0f6",
      "transactionIndex": "0x95",
      "blockHash": "0x874a1777319f437bcf9da730cfe0d96d310b38523edd6291e7fef27b1af121dd",
      "blockNumber": "0x7fe339",
      "gasUsed": "0x9d43c",
      "effectiveGasPrice": "0xa5f07a",
      "from": "0x28556cc7cba0a5af1170fb9ed4e634a811366e70",
      "to": null,
      "contractAddress": "0xdba9d270059eb6d21d61b7c58a95d87c4d872305"
    },
    {
      "status": "0x1",
      "cumulativeGasUsed": "0x16fed27",
      "logs": [
        {
          "address": "0xcc935538a7af54051d9d8561262a71eb1d2a706d",
          "topics": [
            "0x8be0079c531659141344cd1fd0a4f28419497f9722a3daafe3b4186f6b6457e0",
            "0x0000000000000000000000000000000000000000000000000000000000000000",
            "0x00000000000000000000000028556cc7cba0a5af1170fb9ed4e634a811366e70"
          ],
          "data": "0x",
          "blockHash": "0x874a1777319f437bcf9da730cfe0d96d310b38523edd6291e7fef27b1af121dd",
          "blockNumber": "0x7fe339",
          "blockTimestamp": "0x682eefa0",
          "transactionHash": "0x809a8908ca981abac3a799363bb18d3fd247c9ab4919dfbc5aa6b159c8149d2b",
          "transactionIndex": "0x96",
          "logIndex": "0x115",
          "removed": false
        }
      ],
      "logsBloom": "0x00000000000000000000200000000000000000000000000000801000000000000000000000000000000000000000000000000000000000000000000020000000000000000000000000000000000000000001000000000000000000000000000000000000020000000000000010000800000000000000000000000000000000400000000000000000000000000000000000000000000000000000000001000000000000000000000000000000000000000000000000000000000000000000000000000000000000000000000000000000000000000000000000000000000020000000000000000000040000000000000000000000000000000000000000000000",
      "type": "0x2",
      "transactionHash": "0x809a8908ca981abac3a799363bb18d3fd247c9ab4919dfbc5aa6b159c8149d2b",
      "transactionIndex": "0x96",
      "blockHash": "0x874a1777319f437bcf9da730cfe0d96d310b38523edd6291e7fef27b1af121dd",
      "blockNumber": "0x7fe339",
      "gasUsed": "0x1fdf7b",
      "effectiveGasPrice": "0xa5f07a",
      "from": "0x28556cc7cba0a5af1170fb9ed4e634a811366e70",
      "to": null,
      "contractAddress": "0xcc935538a7af54051d9d8561262a71eb1d2a706d"
    },
    {
      "status": "0x1",
      "cumulativeGasUsed": "0x191fc29",
      "logs": [
        {
          "address": "0x683132619b12f77858b2bec83c7e345e58bc7547",
          "topics": [
            "0x8be0079c531659141344cd1fd0a4f28419497f9722a3daafe3b4186f6b6457e0",
            "0x0000000000000000000000000000000000000000000000000000000000000000",
            "0x00000000000000000000000028556cc7cba0a5af1170fb9ed4e634a811366e70"
          ],
          "data": "0x",
          "blockHash": "0x874a1777319f437bcf9da730cfe0d96d310b38523edd6291e7fef27b1af121dd",
          "blockNumber": "0x7fe339",
          "blockTimestamp": "0x682eefa0",
          "transactionHash": "0x272327d03d7328c7ce11cc77ce5de3b7171935b38250c8c8c84ff3bad814e09f",
          "transactionIndex": "0x97",
          "logIndex": "0x116",
          "removed": false
        }
      ],
      "logsBloom": "0x00000000000000000000200000000000000000000000000000801000000000000000000000000000000000000000000000000000000000000000000000000000000000000000000000000000000000000001008000000000000000000000000000000000020000000000000000000800000000000000000000000000000000400004000000000000000000000000000000000000000000000000000001000000000000000000000000000000000000000000000000000000000020000000000000000000000000000000000000000000000000000000000000000000000020000000000000000000000000000000000000000000000000000000000000000000",
      "type": "0x2",
      "transactionHash": "0x272327d03d7328c7ce11cc77ce5de3b7171935b38250c8c8c84ff3bad814e09f",
      "transactionIndex": "0x97",
      "blockHash": "0x874a1777319f437bcf9da730cfe0d96d310b38523edd6291e7fef27b1af121dd",
      "blockNumber": "0x7fe339",
      "gasUsed": "0x220f02",
      "effectiveGasPrice": "0xa5f07a",
      "from": "0x28556cc7cba0a5af1170fb9ed4e634a811366e70",
      "to": null,
      "contractAddress": "0x683132619b12f77858b2bec83c7e345e58bc7547"
    },
    {
      "status": "0x1",
      "cumulativeGasUsed": "0x1a3ffc4",
      "logs": [
        {
          "address": "0xcc935538a7af54051d9d8561262a71eb1d2a706d",
          "topics": [
            "0xddf252ad1be2c89b69c2b068fc378daa952ba7f163c4a11628f55a4df523b3ef",
            "0x0000000000000000000000000000000000000000000000000000000000000000",
            "0x00000000000000000000000028556cc7cba0a5af1170fb9ed4e634a811366e70",
            "0x0000000000000000000000000000000000000000000000000000000000000000"
          ],
          "data": "0x",
          "blockHash": "0x874a1777319f437bcf9da730cfe0d96d310b38523edd6291e7fef27b1af121dd",
          "blockNumber": "0x7fe339",
          "blockTimestamp": "0x682eefa0",
          "transactionHash": "0x7eb192735290071e725255335cc09ef82d519eb54b91e2a02da5b1422a9d649e",
          "transactionIndex": "0x98",
          "logIndex": "0x117",
          "removed": false
        },
        {
          "address": "0xcc935538a7af54051d9d8561262a71eb1d2a706d",
          "topics": [
            "0x72102923c3d44433bd725cb2c744a4c92a536ad249b665dec9853a16ed665525",
            "0x0000000000000000000000000000000000000000000000000000000000000000"
          ],
          "data": "0x",
          "blockHash": "0x874a1777319f437bcf9da730cfe0d96d310b38523edd6291e7fef27b1af121dd",
          "blockNumber": "0x7fe339",
          "blockTimestamp": "0x682eefa0",
          "transactionHash": "0x7eb192735290071e725255335cc09ef82d519eb54b91e2a02da5b1422a9d649e",
          "transactionIndex": "0x98",
          "logIndex": "0x118",
          "removed": false
        }
      ],
      "logsBloom": "0x00000000000000000000200000000000000000000000000000001000000000000000000000000000000000000000000000000000000000000000000020000000000100000000000000000008000000000000000000000000000000000000000000000000020000000000000010000800000000000000000000000010000000000000000000000000000000000000000200000000000000000000000001000000000000000000000000000000000000000000000000000000000000000000200000000002000000000000000000000000000000000000000000000000000020000000000000000000040000000000000000000000000000000000000000000000",
      "type": "0x2",
      "transactionHash": "0x7eb192735290071e725255335cc09ef82d519eb54b91e2a02da5b1422a9d649e",
      "transactionIndex": "0x98",
      "blockHash": "0x874a1777319f437bcf9da730cfe0d96d310b38523edd6291e7fef27b1af121dd",
      "blockNumber": "0x7fe339",
      "gasUsed": "0x12039b",
      "effectiveGasPrice": "0xa5f07a",
      "from": "0x28556cc7cba0a5af1170fb9ed4e634a811366e70",
      "to": "0xcc935538a7af54051d9d8561262a71eb1d2a706d",
      "contractAddress": null
    },
    {
      "status": "0x1",
      "cumulativeGasUsed": "0x1a4bc91",
      "logs": [
        {
          "address": "0xcc935538a7af54051d9d8561262a71eb1d2a706d",
          "topics": [
            "0x8c5be1e5ebec7d5bd14f71427d1e84f3dd0314c0f7b2291e5b200ac8c7c3b925",
            "0x00000000000000000000000028556cc7cba0a5af1170fb9ed4e634a811366e70",
            "0x000000000000000000000000dba9d270059eb6d21d61b7c58a95d87c4d872305",
            "0x0000000000000000000000000000000000000000000000000000000000000000"
          ],
          "data": "0x",
          "blockHash": "0x874a1777319f437bcf9da730cfe0d96d310b38523edd6291e7fef27b1af121dd",
          "blockNumber": "0x7fe339",
          "blockTimestamp": "0x682eefa0",
          "transactionHash": "0xbeebd7c3421ed26740b8a6c84ae402077ffd0a88534587b5dc2f3ec35dc359b5",
          "transactionIndex": "0x99",
          "logIndex": "0x119",
          "removed": false
        }
      ],
      "logsBloom": "0x00004000000000000000200000000000000002000000000000001000000000000000000000000000000000000000000000000000000000000000000020200000000000000000000000010000000000000000000000000000000000000000000000000000020000000000000010000800000000000000000000000000000000000000000000000000000000000000000000000000000000000000000001000000020000000000000000000000000000000000000000000000000000000000000000000000000000000000000000000000000000000000000000000000000020000010000000000000040000000000000000000000000000000000000000000000",
      "type": "0x2",
      "transactionHash": "0xbeebd7c3421ed26740b8a6c84ae402077ffd0a88534587b5dc2f3ec35dc359b5",
      "transactionIndex": "0x99",
      "blockHash": "0x874a1777319f437bcf9da730cfe0d96d310b38523edd6291e7fef27b1af121dd",
      "blockNumber": "0x7fe339",
      "gasUsed": "0xbccd",
      "effectiveGasPrice": "0xa5f07a",
      "from": "0x28556cc7cba0a5af1170fb9ed4e634a811366e70",
      "to": "0xcc935538a7af54051d9d8561262a71eb1d2a706d",
      "contractAddress": null
    },
    {
      "status": "0x1",
      "cumulativeGasUsed": "0x1a5ed9f",
      "logs": [
        {
          "address": "0xdba9d270059eb6d21d61b7c58a95d87c4d872305",
          "topics": [
            "0xd547e933094f12a9159076970143ebe73234e64480317844b0dcb36117116de4",
            "0x00000000000000000000000028556cc7cba0a5af1170fb9ed4e634a811366e70",
            "0x000000000000000000000000cc935538a7af54051d9d8561262a71eb1d2a706d",
            "0x0000000000000000000000000000000000000000000000000000000000000000"
          ],
          "data": "0x0000000000000000000000000000000000000000000000000000000000989680",
          "blockHash": "0x874a1777319f437bcf9da730cfe0d96d310b38523edd6291e7fef27b1af121dd",
          "blockNumber": "0x7fe339",
          "blockTimestamp": "0x682eefa0",
          "transactionHash": "0x3dc958356531985a4f006f7e9c6f9eaca8223885e73bf044c670ff88370c8c63",
          "transactionIndex": "0x9a",
          "logIndex": "0x11a",
          "removed": false
        }
      ],
      "logsBloom": "0x00000000000000000000200000000000000000000000000000001000000000000000000000000000000000000000000000000000000000000000008000004004000000000000000000000000000000000000000000000000000000000000000000000000028000000000040000000800000000000000000000000000000040000000000000000000000000000000000000000000000000000400000001000000000000000000000000000000000000000000000020000000000000000000000000000000000000000000000000000000000000000000000000000000000020000000000000000001000000000000000000000000000000000000000000000000",
      "type": "0x2",
      "transactionHash": "0x3dc958356531985a4f006f7e9c6f9eaca8223885e73bf044c670ff88370c8c63",
      "transactionIndex": "0x9a",
      "blockHash": "0x874a1777319f437bcf9da730cfe0d96d310b38523edd6291e7fef27b1af121dd",
      "blockNumber": "0x7fe339",
      "gasUsed": "0x1310e",
      "effectiveGasPrice": "0xa5f07a",
      "from": "0x28556cc7cba0a5af1170fb9ed4e634a811366e70",
      "to": "0xdba9d270059eb6d21d61b7c58a95d87c4d872305",
      "contractAddress": null
    },
    {
      "status": "0x1",
      "cumulativeGasUsed": "0x1b76ba2",
      "logs": [
        {
          "address": "0xcc935538a7af54051d9d8561262a71eb1d2a706d",
          "topics": [
            "0xddf252ad1be2c89b69c2b068fc378daa952ba7f163c4a11628f55a4df523b3ef",
            "0x0000000000000000000000000000000000000000000000000000000000000000",
            "0x00000000000000000000000028556cc7cba0a5af1170fb9ed4e634a811366e70",
            "0x0000000000000000000000000000000000000000000000000000000000000001"
          ],
          "data": "0x",
          "blockHash": "0x874a1777319f437bcf9da730cfe0d96d310b38523edd6291e7fef27b1af121dd",
          "blockNumber": "0x7fe339",
          "blockTimestamp": "0x682eefa0",
          "transactionHash": "0xd156a999c32e9d8773a2a9fbb27e7eb684d5af2fc65c4e919d346b14c1584782",
          "transactionIndex": "0x9b",
          "logIndex": "0x11b",
          "removed": false
        },
        {
          "address": "0xcc935538a7af54051d9d8561262a71eb1d2a706d",
          "topics": [
            "0x72102923c3d44433bd725cb2c744a4c92a536ad249b665dec9853a16ed665525",
            "0x0000000000000000000000000000000000000000000000000000000000000001"
          ],
          "data": "0x",
          "blockHash": "0x874a1777319f437bcf9da730cfe0d96d310b38523edd6291e7fef27b1af121dd",
          "blockNumber": "0x7fe339",
          "blockTimestamp": "0x682eefa0",
          "transactionHash": "0xd156a999c32e9d8773a2a9fbb27e7eb684d5af2fc65c4e919d346b14c1584782",
          "transactionIndex": "0x9b",
          "logIndex": "0x11c",
          "removed": false
        }
      ],
      "logsBloom": "0x00000000000000000000200000000000000000000000000000001000000000000000000000000000000000000000000000000000000000000000000020040000000100000000000000000008000000000000000000040000000000000000000000000000020000000000000010000800000000000000000000000010000000000000000000000000000000000000000200000000000000000000000001000000000000000000000000000000000000000000000000000000000000000000200000000002000000000000000000000000000000000000000000000000000060000000000000000000040000000000000000000000000000000000000000000000",
      "type": "0x2",
      "transactionHash": "0xd156a999c32e9d8773a2a9fbb27e7eb684d5af2fc65c4e919d346b14c1584782",
      "transactionIndex": "0x9b",
      "blockHash": "0x874a1777319f437bcf9da730cfe0d96d310b38523edd6291e7fef27b1af121dd",
      "blockNumber": "0x7fe339",
      "gasUsed": "0x117e03",
      "effectiveGasPrice": "0xa5f07a",
      "from": "0x28556cc7cba0a5af1170fb9ed4e634a811366e70",
      "to": "0xcc935538a7af54051d9d8561262a71eb1d2a706d",
      "contractAddress": null
    },
    {
      "status": "0x1",
      "cumulativeGasUsed": "0x1b8287b",
      "logs": [
        {
          "address": "0xcc935538a7af54051d9d8561262a71eb1d2a706d",
          "topics": [
            "0x8c5be1e5ebec7d5bd14f71427d1e84f3dd0314c0f7b2291e5b200ac8c7c3b925",
            "0x00000000000000000000000028556cc7cba0a5af1170fb9ed4e634a811366e70",
            "0x000000000000000000000000dba9d270059eb6d21d61b7c58a95d87c4d872305",
            "0x0000000000000000000000000000000000000000000000000000000000000001"
          ],
          "data": "0x",
          "blockHash": "0x874a1777319f437bcf9da730cfe0d96d310b38523edd6291e7fef27b1af121dd",
          "blockNumber": "0x7fe339",
          "blockTimestamp": "0x682eefa0",
          "transactionHash": "0x10cf436bdcc6d82a44e94f0f5c69ab378ec06b29c8a4347ae492df756b954b9d",
          "transactionIndex": "0x9c",
          "logIndex": "0x11d",
          "removed": false
        }
      ],
      "logsBloom": "0x00004000000000000000200000000000000002000000000000001000000000000000000000000000000000000000000000000000000000000000000020240000000000000000000000010000000000000000000000040000000000000000000000000000000000000000000010000000000000000000000000000000000000000000000000000000000000000000000000000000000000000000000001000000020000000000000000000000000000000000000000000000000000000000000000000000000000000000000000000000000000000000000000000000000040000010000000000000040000000000000000000000000000000000000000000000",
      "type": "0x2",
      "transactionHash": "0x10cf436bdcc6d82a44e94f0f5c69ab378ec06b29c8a4347ae492df756b954b9d",
      "transactionIndex": "0x9c",
      "blockHash": "0x874a1777319f437bcf9da730cfe0d96d310b38523edd6291e7fef27b1af121dd",
      "blockNumber": "0x7fe339",
      "gasUsed": "0xbcd9",
      "effectiveGasPrice": "0xa5f07a",
      "from": "0x28556cc7cba0a5af1170fb9ed4e634a811366e70",
      "to": "0xcc935538a7af54051d9d8561262a71eb1d2a706d",
      "contractAddress": null
    },
    {
      "status": "0x1",
      "cumulativeGasUsed": "0x1b95995",
      "logs": [
        {
          "address": "0xdba9d270059eb6d21d61b7c58a95d87c4d872305",
          "topics": [
            "0xd547e933094f12a9159076970143ebe73234e64480317844b0dcb36117116de4",
            "0x00000000000000000000000028556cc7cba0a5af1170fb9ed4e634a811366e70",
            "0x000000000000000000000000cc935538a7af54051d9d8561262a71eb1d2a706d",
            "0x0000000000000000000000000000000000000000000000000000000000000001"
          ],
          "data": "0x0000000000000000000000000000000000000000000000000000000000989680",
          "blockHash": "0x874a1777319f437bcf9da730cfe0d96d310b38523edd6291e7fef27b1af121dd",
          "blockNumber": "0x7fe339",
          "blockTimestamp": "0x682eefa0",
          "transactionHash": "0xa0cca3ddfd190e751973522a485564d42b5801ad6dfa91ab6e2d8bf62877494c",
          "transactionIndex": "0x9d",
          "logIndex": "0x11e",
          "removed": false
        }
      ],
      "logsBloom": "0x00000000000000000000200000000000000000000000000000001000000000000000000000000000000000000000000000000000000000000000008000044004000000000000000000000000000000000000000000040000000000000000000000000000008000000000040000000000000000000000000000000000000040000000000000000000000000000000000000000000000000000400000001000000000000000000000000000000000000000000000020000000000000000000000000000000000000000000000000000000000000000000000000000000000040000000000000000001000000000000000000000000000000000000000000000000",
      "type": "0x2",
      "transactionHash": "0xa0cca3ddfd190e751973522a485564d42b5801ad6dfa91ab6e2d8bf62877494c",
      "transactionIndex": "0x9d",
      "blockHash": "0x874a1777319f437bcf9da730cfe0d96d310b38523edd6291e7fef27b1af121dd",
      "blockNumber": "0x7fe339",
      "gasUsed": "0x1311a",
      "effectiveGasPrice": "0xa5f07a",
      "from": "0x28556cc7cba0a5af1170fb9ed4e634a811366e70",
      "to": "0xdba9d270059eb6d21d61b7c58a95d87c4d872305",
      "contractAddress": null
    },
    {
      "status": "0x1",
      "cumulativeGasUsed": "0x1cad798",
      "logs": [
        {
          "address": "0xcc935538a7af54051d9d8561262a71eb1d2a706d",
          "topics": [
            "0xddf252ad1be2c89b69c2b068fc378daa952ba7f163c4a11628f55a4df523b3ef",
            "0x0000000000000000000000000000000000000000000000000000000000000000",
            "0x00000000000000000000000028556cc7cba0a5af1170fb9ed4e634a811366e70",
            "0x0000000000000000000000000000000000000000000000000000000000000002"
          ],
          "data": "0x",
          "blockHash": "0x874a1777319f437bcf9da730cfe0d96d310b38523edd6291e7fef27b1af121dd",
          "blockNumber": "0x7fe339",
          "blockTimestamp": "0x682eefa0",
          "transactionHash": "0x0d0cdc6075962ea822b36468098cbc7532147fe3da42dbc26c356aa5a05ca271",
          "transactionIndex": "0x9e",
          "logIndex": "0x11f",
          "removed": false
        },
        {
          "address": "0xcc935538a7af54051d9d8561262a71eb1d2a706d",
          "topics": [
            "0x72102923c3d44433bd725cb2c744a4c92a536ad249b665dec9853a16ed665525",
            "0x0000000000000000000000000000000000000000000000000000000000000002"
          ],
          "data": "0x",
          "blockHash": "0x874a1777319f437bcf9da730cfe0d96d310b38523edd6291e7fef27b1af121dd",
          "blockNumber": "0x7fe339",
          "blockTimestamp": "0x682eefa0",
          "transactionHash": "0x0d0cdc6075962ea822b36468098cbc7532147fe3da42dbc26c356aa5a05ca271",
          "transactionIndex": "0x9e",
          "logIndex": "0x120",
          "removed": false
        }
      ],
      "logsBloom": "0x04000000000000000000200000000000000000000000000000001000000000000000000000000000000000000000000000000000000000000000000020000000000100000000000000000008000000000000000000000000000000000000000000000000020000000000000010000800000000000000000000000010000000000000000000000000000000000000000200000000000000000000000001000000000000000000000000000100000000000000000000000000000000000000200000000002000000000000000000000000000000000000000000000000000020000000000000000000040000000000000000000000008000000000000000000000",
      "type": "0x2",
      "transactionHash": "0x0d0cdc6075962ea822b36468098cbc7532147fe3da42dbc26c356aa5a05ca271",
      "transactionIndex": "0x9e",
      "blockHash": "0x874a1777319f437bcf9da730cfe0d96d310b38523edd6291e7fef27b1af121dd",
      "blockNumber": "0x7fe339",
      "gasUsed": "0x117e03",
      "effectiveGasPrice": "0xa5f07a",
      "from": "0x28556cc7cba0a5af1170fb9ed4e634a811366e70",
      "to": "0xcc935538a7af54051d9d8561262a71eb1d2a706d",
      "contractAddress": null
    },
    {
      "status": "0x1",
      "cumulativeGasUsed": "0x1cb9471",
      "logs": [
        {
          "address": "0xcc935538a7af54051d9d8561262a71eb1d2a706d",
          "topics": [
            "0x8c5be1e5ebec7d5bd14f71427d1e84f3dd0314c0f7b2291e5b200ac8c7c3b925",
            "0x00000000000000000000000028556cc7cba0a5af1170fb9ed4e634a811366e70",
            "0x000000000000000000000000dba9d270059eb6d21d61b7c58a95d87c4d872305",
            "0x0000000000000000000000000000000000000000000000000000000000000002"
          ],
          "data": "0x",
          "blockHash": "0x874a1777319f437bcf9da730cfe0d96d310b38523edd6291e7fef27b1af121dd",
          "blockNumber": "0x7fe339",
          "blockTimestamp": "0x682eefa0",
          "transactionHash": "0x9111018dea4cdace2e7f7340d459eb03a3e53c70a98815cac6e33fc52016b5a5",
          "transactionIndex": "0x9f",
          "logIndex": "0x121",
          "removed": false
        }
      ],
      "logsBloom": "0x04004000000000000000200000000000000002000000000000001000000000000000000000000000000000000000000000000000000000000000000020200000000000000000000000010000000000000000000000000000000000000000000000000000000000000000000010000000000000000000000000000000000000000000000000000000000000000000000000000000000000000000000001000000020000000000000000000100000000000000000000000000000000000000000000000000000000000000000000000000000000000000000000000000000000000010000000000000040000000000000000000000008000000000000000000000",
      "type": "0x2",
      "transactionHash": "0x9111018dea4cdace2e7f7340d459eb03a3e53c70a98815cac6e33fc52016b5a5",
      "transactionIndex": "0x9f",
      "blockHash": "0x874a1777319f437bcf9da730cfe0d96d310b38523edd6291e7fef27b1af121dd",
      "blockNumber": "0x7fe339",
      "gasUsed": "0xbcd9",
      "effectiveGasPrice": "0xa5f07a",
      "from": "0x28556cc7cba0a5af1170fb9ed4e634a811366e70",
      "to": "0xcc935538a7af54051d9d8561262a71eb1d2a706d",
      "contractAddress": null
    },
    {
      "status": "0x1",
      "cumulativeGasUsed": "0x1ccc58b",
      "logs": [
        {
          "address": "0xdba9d270059eb6d21d61b7c58a95d87c4d872305",
          "topics": [
            "0xd547e933094f12a9159076970143ebe73234e64480317844b0dcb36117116de4",
            "0x00000000000000000000000028556cc7cba0a5af1170fb9ed4e634a811366e70",
            "0x000000000000000000000000cc935538a7af54051d9d8561262a71eb1d2a706d",
            "0x0000000000000000000000000000000000000000000000000000000000000002"
          ],
          "data": "0x0000000000000000000000000000000000000000000000000000000000989680",
          "blockHash": "0x874a1777319f437bcf9da730cfe0d96d310b38523edd6291e7fef27b1af121dd",
          "blockNumber": "0x7fe339",
          "blockTimestamp": "0x682eefa0",
          "transactionHash": "0x218d2232ff22d5534520646f9b7af26d536e55e5c91e54bc3caa296221dbe0ba",
          "transactionIndex": "0xa0",
          "logIndex": "0x122",
          "removed": false
        }
      ],
      "logsBloom": "0x04000000000000000000200000000000000000000000000000001000000000000000000000000000000000000000000000000000000000000000008000004004000000000000000000000000000000000000000000000000000000000000000000000000008000000000040000000000000000000000000000000000000040000000000000000000000000000000000000000000000000000400000001000000000000000000000000000100000000000000000020000000000000000000000000000000000000000000000000000000000000000000000000000000000000000000000000000001000000000000000000000000008000000000000000000000",
      "type": "0x2",
      "transactionHash": "0x218d2232ff22d5534520646f9b7af26d536e55e5c91e54bc3caa296221dbe0ba",
      "transactionIndex": "0xa0",
      "blockHash": "0x874a1777319f437bcf9da730cfe0d96d310b38523edd6291e7fef27b1af121dd",
      "blockNumber": "0x7fe339",
      "gasUsed": "0x1311a",
      "effectiveGasPrice": "0xa5f07a",
      "from": "0x28556cc7cba0a5af1170fb9ed4e634a811366e70",
      "to": "0xdba9d270059eb6d21d61b7c58a95d87c4d872305",
      "contractAddress": null
    },
    {
      "status": "0x1",
      "cumulativeGasUsed": "0x1de438e",
      "logs": [
        {
          "address": "0xcc935538a7af54051d9d8561262a71eb1d2a706d",
          "topics": [
            "0xddf252ad1be2c89b69c2b068fc378daa952ba7f163c4a11628f55a4df523b3ef",
            "0x0000000000000000000000000000000000000000000000000000000000000000",
            "0x00000000000000000000000028556cc7cba0a5af1170fb9ed4e634a811366e70",
            "0x0000000000000000000000000000000000000000000000000000000000000003"
          ],
          "data": "0x",
          "blockHash": "0x874a1777319f437bcf9da730cfe0d96d310b38523edd6291e7fef27b1af121dd",
          "blockNumber": "0x7fe339",
          "blockTimestamp": "0x682eefa0",
          "transactionHash": "0xc61bed8047cedb23f7b6d234cc18d2aa6737b20eb1a47600128881a2139e9715",
          "transactionIndex": "0xa1",
          "logIndex": "0x123",
          "removed": false
        },
        {
          "address": "0xcc935538a7af54051d9d8561262a71eb1d2a706d",
          "topics": [
            "0x72102923c3d44433bd725cb2c744a4c92a536ad249b665dec9853a16ed665525",
            "0x0000000000000000000000000000000000000000000000000000000000000003"
          ],
          "data": "0x",
          "blockHash": "0x874a1777319f437bcf9da730cfe0d96d310b38523edd6291e7fef27b1af121dd",
          "blockNumber": "0x7fe339",
          "blockTimestamp": "0x682eefa0",
          "transactionHash": "0xc61bed8047cedb23f7b6d234cc18d2aa6737b20eb1a47600128881a2139e9715",
          "transactionIndex": "0xa1",
          "logIndex": "0x124",
          "removed": false
        }
      ],
      "logsBloom": "0x00000000000000000000200000000000000000000000000000001000000000000000000000000000000000000000000000000000020000000000000020000000000100000000000000000008000000000000000000000000000000000000000000000000020000000000000010000800000000000000000000000010000000000000000000000000000000000000000200000000000000000000000001000000000000000000000000000000000000000000000000800000000000000000600000000002000000000000000000000000000000000000000000000000000020000000000000000000040000000000000000000000000000000000000000000000",
      "type": "0x2",
      "transactionHash": "0xc61bed8047cedb23f7b6d234cc18d2aa6737b20eb1a47600128881a2139e9715",
      "transactionIndex": "0xa1",
      "blockHash": "0x874a1777319f437bcf9da730cfe0d96d310b38523edd6291e7fef27b1af121dd",
      "blockNumber": "0x7fe339",
      "gasUsed": "0x117e03",
      "effectiveGasPrice": "0xa5f07a",
      "from": "0x28556cc7cba0a5af1170fb9ed4e634a811366e70",
      "to": "0xcc935538a7af54051d9d8561262a71eb1d2a706d",
      "contractAddress": null
    },
    {
      "status": "0x1",
      "cumulativeGasUsed": "0x1df0067",
      "logs": [
        {
          "address": "0xcc935538a7af54051d9d8561262a71eb1d2a706d",
          "topics": [
            "0x8c5be1e5ebec7d5bd14f71427d1e84f3dd0314c0f7b2291e5b200ac8c7c3b925",
            "0x00000000000000000000000028556cc7cba0a5af1170fb9ed4e634a811366e70",
            "0x000000000000000000000000dba9d270059eb6d21d61b7c58a95d87c4d872305",
            "0x0000000000000000000000000000000000000000000000000000000000000003"
          ],
          "data": "0x",
          "blockHash": "0x874a1777319f437bcf9da730cfe0d96d310b38523edd6291e7fef27b1af121dd",
          "blockNumber": "0x7fe339",
          "blockTimestamp": "0x682eefa0",
          "transactionHash": "0x40cea3928f49b368c2e9edb7168b38045e8cd9e8815c3eb26b759d453fb16463",
          "transactionIndex": "0xa2",
          "logIndex": "0x125",
          "removed": false
        }
      ],
      "logsBloom": "0x00004000000000000000200000000000000002000000000000001000000000000000000000000000000000000000000000000000020000000000000020200000000000000000000000010000000000000000000000000000000000000000000000000000000000000000000010000000000000000000000000000000000000000000000000000000000000000000000000000000000000000000000001000000020000000000000000000000000000000000000000800000000000000000400000000000000000000000000000000000000000000000000000000000000000000010000000000000040000000000000000000000000000000000000000000000",
      "type": "0x2",
      "transactionHash": "0x40cea3928f49b368c2e9edb7168b38045e8cd9e8815c3eb26b759d453fb16463",
      "transactionIndex": "0xa2",
      "blockHash": "0x874a1777319f437bcf9da730cfe0d96d310b38523edd6291e7fef27b1af121dd",
      "blockNumber": "0x7fe339",
      "gasUsed": "0xbcd9",
      "effectiveGasPrice": "0xa5f07a",
      "from": "0x28556cc7cba0a5af1170fb9ed4e634a811366e70",
      "to": "0xcc935538a7af54051d9d8561262a71eb1d2a706d",
      "contractAddress": null
    },
    {
      "status": "0x1",
      "cumulativeGasUsed": "0x1e03181",
      "logs": [
        {
          "address": "0xdba9d270059eb6d21d61b7c58a95d87c4d872305",
          "topics": [
            "0xd547e933094f12a9159076970143ebe73234e64480317844b0dcb36117116de4",
            "0x00000000000000000000000028556cc7cba0a5af1170fb9ed4e634a811366e70",
            "0x000000000000000000000000cc935538a7af54051d9d8561262a71eb1d2a706d",
            "0x0000000000000000000000000000000000000000000000000000000000000003"
          ],
          "data": "0x0000000000000000000000000000000000000000000000000000000000989680",
          "blockHash": "0x874a1777319f437bcf9da730cfe0d96d310b38523edd6291e7fef27b1af121dd",
          "blockNumber": "0x7fe339",
          "blockTimestamp": "0x682eefa0",
          "transactionHash": "0x4e7975212631873dd237005d76aefa8153bbab7aea06ff9b51a600469b946355",
          "transactionIndex": "0xa3",
          "logIndex": "0x126",
          "removed": false
        }
      ],
      "logsBloom": "0x00000000000000000000200000000000000000000000000000001000000000000000000000000000000000000000000000000000020000000000008000004004000000000000000000000000000000000000000000000000000000000000000000000000008000000000040000000000000000000000000000000000000040000000000000000000000000000000000000000000000000000400000001000000000000000000000000000000000000000000000020800000000000000000400000000000000000000000000000000000000000000000000000000000000000000000000000000001000000000000000000000000000000000000000000000000",
      "type": "0x2",
      "transactionHash": "0x4e7975212631873dd237005d76aefa8153bbab7aea06ff9b51a600469b946355",
      "transactionIndex": "0xa3",
      "blockHash": "0x874a1777319f437bcf9da730cfe0d96d310b38523edd6291e7fef27b1af121dd",
      "blockNumber": "0x7fe339",
      "gasUsed": "0x1311a",
      "effectiveGasPrice": "0xa5f07a",
      "from": "0x28556cc7cba0a5af1170fb9ed4e634a811366e70",
      "to": "0xdba9d270059eb6d21d61b7c58a95d87c4d872305",
      "contractAddress": null
    },
    {
      "status": "0x1",
      "cumulativeGasUsed": "0x1f1af84",
      "logs": [
        {
          "address": "0xcc935538a7af54051d9d8561262a71eb1d2a706d",
          "topics": [
            "0xddf252ad1be2c89b69c2b068fc378daa952ba7f163c4a11628f55a4df523b3ef",
            "0x0000000000000000000000000000000000000000000000000000000000000000",
            "0x00000000000000000000000028556cc7cba0a5af1170fb9ed4e634a811366e70",
            "0x0000000000000000000000000000000000000000000000000000000000000004"
          ],
          "data": "0x",
          "blockHash": "0x874a1777319f437bcf9da730cfe0d96d310b38523edd6291e7fef27b1af121dd",
          "blockNumber": "0x7fe339",
          "blockTimestamp": "0x682eefa0",
          "transactionHash": "0x847978a32966c166667efd4950eda8432efc92dddabc1313e99ff445c0a3d7e6",
          "transactionIndex": "0xa4",
          "logIndex": "0x127",
          "removed": false
        },
        {
          "address": "0xcc935538a7af54051d9d8561262a71eb1d2a706d",
          "topics": [
            "0x72102923c3d44433bd725cb2c744a4c92a536ad249b665dec9853a16ed665525",
            "0x0000000000000000000000000000000000000000000000000000000000000004"
          ],
          "data": "0x",
          "blockHash": "0x874a1777319f437bcf9da730cfe0d96d310b38523edd6291e7fef27b1af121dd",
          "blockNumber": "0x7fe339",
          "blockTimestamp": "0x682eefa0",
          "transactionHash": "0x847978a32966c166667efd4950eda8432efc92dddabc1313e99ff445c0a3d7e6",
          "transactionIndex": "0xa4",
          "logIndex": "0x128",
          "removed": false
        }
      ],
      "logsBloom": "0x00000000000000000000200000000000000000000000000000001000000000000000000000000000000000000000000000000000000000000000000020000000000100000000000000000008000000000000000000000000000000000000000008000000020000000000000010000800000000000000000000000010000000000000000000000000000000000000000200000000000000000000000001000000000000000000000000000000000000000000000000000000002000000000200000000002000000000000000000000000000000008000000000000000000020000000000000000000040000000000000000000000000000000000000000000000",
      "type": "0x2",
      "transactionHash": "0x847978a32966c166667efd4950eda8432efc92dddabc1313e99ff445c0a3d7e6",
      "transactionIndex": "0xa4",
      "blockHash": "0x874a1777319f437bcf9da730cfe0d96d310b38523edd6291e7fef27b1af121dd",
      "blockNumber": "0x7fe339",
      "gasUsed": "0x117e03",
      "effectiveGasPrice": "0xa5f07a",
      "from": "0x28556cc7cba0a5af1170fb9ed4e634a811366e70",
      "to": "0xcc935538a7af54051d9d8561262a71eb1d2a706d",
      "contractAddress": null
    },
    {
      "status": "0x1",
      "cumulativeGasUsed": "0x1f31727",
      "logs": [
        {
          "address": "0x683132619b12f77858b2bec83c7e345e58bc7547",
          "topics": [
            "0xddf252ad1be2c89b69c2b068fc378daa952ba7f163c4a11628f55a4df523b3ef",
            "0x0000000000000000000000000000000000000000000000000000000000000000",
            "0x00000000000000000000000028556cc7cba0a5af1170fb9ed4e634a811366e70",
            "0x0000000000000000000000000000000000000000000000000000000000000000"
          ],
          "data": "0x",
          "blockHash": "0x874a1777319f437bcf9da730cfe0d96d310b38523edd6291e7fef27b1af121dd",
          "blockNumber": "0x7fe339",
          "blockTimestamp": "0x682eefa0",
          "transactionHash": "0x00bc88335d7a6b72d50ee7041ddc47297ddffa82ddbbf548ba94bf8bfca60f75",
          "transactionIndex": "0xa5",
          "logIndex": "0x129",
          "removed": false
        },
        {
          "address": "0x683132619b12f77858b2bec83c7e345e58bc7547",
          "topics": [
            "0x72102923c3d44433bd725cb2c744a4c92a536ad249b665dec9853a16ed665525",
            "0x0000000000000000000000000000000000000000000000000000000000000000"
          ],
          "data": "0x",
          "blockHash": "0x874a1777319f437bcf9da730cfe0d96d310b38523edd6291e7fef27b1af121dd",
          "blockNumber": "0x7fe339",
          "blockTimestamp": "0x682eefa0",
          "transactionHash": "0x00bc88335d7a6b72d50ee7041ddc47297ddffa82ddbbf548ba94bf8bfca60f75",
          "transactionIndex": "0xa5",
          "logIndex": "0x12a",
          "removed": false
        }
      ],
      "logsBloom": "0x00000000000000000000200000000000000000000000000000001000000000000000000000000000000000000000000000000000000000000000000000000000000100000000000000000008000000000000008000000000000000000000000000000000020000000000000000000800000000000000000000000010000000000004000000000000000000000000000200000000000000000000000001000000000000000000000000000000000000000000000000000000000020000000200000000002000000000000000000000000000000000000000000000000000020000000000000000000000000000000000000000000000000000000000000000000",
      "type": "0x2",
      "transactionHash": "0x00bc88335d7a6b72d50ee7041ddc47297ddffa82ddbbf548ba94bf8bfca60f75",
      "transactionIndex": "0xa5",
      "blockHash": "0x874a1777319f437bcf9da730cfe0d96d310b38523edd6291e7fef27b1af121dd",
      "blockNumber": "0x7fe339",
      "gasUsed": "0x167a3",
      "effectiveGasPrice": "0xa5f07a",
      "from": "0x28556cc7cba0a5af1170fb9ed4e634a811366e70",
      "to": "0x683132619b12f77858b2bec83c7e345e58bc7547",
      "contractAddress": null
    },
    {
      "status": "0x1",
      "cumulativeGasUsed": "0x1f445c2",
      "logs": [
        {
          "address": "0x683132619b12f77858b2bec83c7e345e58bc7547",
          "topics": [
            "0xddf252ad1be2c89b69c2b068fc378daa952ba7f163c4a11628f55a4df523b3ef",
            "0x0000000000000000000000000000000000000000000000000000000000000000",
            "0x00000000000000000000000012ff199bbc384dda90e66fbfc3b4d95bb922bf06",
            "0x0000000000000000000000000000000000000000000000000000000000000001"
          ],
          "data": "0x",
          "blockHash": "0x874a1777319f437bcf9da730cfe0d96d310b38523edd6291e7fef27b1af121dd",
          "blockNumber": "0x7fe339",
          "blockTimestamp": "0x682eefa0",
          "transactionHash": "0x523b1c074d78f7f71ad8d0c568df854b081340bbb5d0269e3f76c99b156f6834",
          "transactionIndex": "0xa6",
          "logIndex": "0x12b",
          "removed": false
        },
        {
          "address": "0x683132619b12f77858b2bec83c7e345e58bc7547",
          "topics": [
            "0x72102923c3d44433bd725cb2c744a4c92a536ad249b665dec9853a16ed665525",
            "0x0000000000000000000000000000000000000000000000000000000000000001"
          ],
          "data": "0x",
          "blockHash": "0x874a1777319f437bcf9da730cfe0d96d310b38523edd6291e7fef27b1af121dd",
          "blockNumber": "0x7fe339",
          "blockTimestamp": "0x682eefa0",
          "transactionHash": "0x523b1c074d78f7f71ad8d0c568df854b081340bbb5d0269e3f76c99b156f6834",
          "transactionIndex": "0xa6",
          "logIndex": "0x12c",
          "removed": false
        }
      ],
      "logsBloom": "0x00000000000000200000000000000000000000000000000000000000000000000000000000000000040000000000000000000000000000000000000000040000000100000000000000000008000000000000008000040000000000000000000000000000020000000000000000000800000000000000000000000010200000000004000000000000000000000000000200000000000000000000000000000000000000000000000000000000000000000000000000000000000020000000200000000002000000000000000000000000000000000000000000000000000060000000000000000000000000000000000000000000000000000000000000000000",
      "type": "0x2",
      "transactionHash": "0x523b1c074d78f7f71ad8d0c568df854b081340bbb5d0269e3f76c99b156f6834",
      "transactionIndex": "0xa6",
      "blockHash": "0x874a1777319f437bcf9da730cfe0d96d310b38523edd6291e7fef27b1af121dd",
      "blockNumber": "0x7fe339",
      "gasUsed": "0x12e9b",
      "effectiveGasPrice": "0xa5f07a",
      "from": "0x28556cc7cba0a5af1170fb9ed4e634a811366e70",
      "to": "0x683132619b12f77858b2bec83c7e345e58bc7547",
      "contractAddress": null
    },
    {
      "status": "0x1",
      "cumulativeGasUsed": "0x1f54fc7",
      "logs": [
        {
          "address": "0x92dde23845a3518e577001dfaa1095ec4d5725f4",
          "topics": [
            "0xddf252ad1be2c89b69c2b068fc378daa952ba7f163c4a11628f55a4df523b3ef",
            "0x0000000000000000000000000000000000000000000000000000000000000000",
            "0x00000000000000000000000028556cc7cba0a5af1170fb9ed4e634a811366e70"
          ],
          "data": "0x0000000000000000000000000000000000000000000000000000000005f5e100",
          "blockHash": "0x874a1777319f437bcf9da730cfe0d96d310b38523edd6291e7fef27b1af121dd",
          "blockNumber": "0x7fe339",
          "blockTimestamp": "0x682eefa0",
          "transactionHash": "0x2169b23c86209151973b96dbb4924ce808e773b2f206bd93d2e6f439f326cb78",
          "transactionIndex": "0xa7",
          "logIndex": "0x12d",
          "removed": false
        }
      ],
      "logsBloom": "0x00000000000000000000200000000000000000000000000000001000000000000000000000000000000000000000000000000000100000000000000000000000000000000000000000000008000000000008000000000000000000000000000000000000020000000000000000000800000000000000000000000010000000000000000000000000000000000000000000000000000000000000000001000000010000000000000000000000000000000000000000000000000000000000000000000002000000000000000000000000000000000000000000000000000020000000000000000000000000000000000000000000000000000000000000000000",
      "type": "0x2",
      "transactionHash": "0x2169b23c86209151973b96dbb4924ce808e773b2f206bd93d2e6f439f326cb78",
      "transactionIndex": "0xa7",
      "blockHash": "0x874a1777319f437bcf9da730cfe0d96d310b38523edd6291e7fef27b1af121dd",
      "blockNumber": "0x7fe339",
      "gasUsed": "0x10a05",
      "effectiveGasPrice": "0xa5f07a",
      "from": "0x28556cc7cba0a5af1170fb9ed4e634a811366e70",
      "to": "0x92dde23845a3518e577001dfaa1095ec4d5725f4",
      "contractAddress": null
    },
    {
      "status": "0x1",
      "cumulativeGasUsed": "0x1f61700",
      "logs": [
        {
          "address": "0x92dde23845a3518e577001dfaa1095ec4d5725f4",
          "topics": [
            "0xddf252ad1be2c89b69c2b068fc378daa952ba7f163c4a11628f55a4df523b3ef",
            "0x0000000000000000000000000000000000000000000000000000000000000000",
            "0x00000000000000000000000012ff199bbc384dda90e66fbfc3b4d95bb922bf06"
          ],
          "data": "0x0000000000000000000000000000000000000000000000000000000005f5e100",
          "blockHash": "0x874a1777319f437bcf9da730cfe0d96d310b38523edd6291e7fef27b1af121dd",
          "blockNumber": "0x7fe339",
          "blockTimestamp": "0x682eefa0",
          "transactionHash": "0x4db8d9ff7e66f82ed0e3bb0f92cb61217105ee07bf404c8b37b8d0cf26591e1d",
          "transactionIndex": "0xa8",
          "logIndex": "0x12e",
          "removed": false
        }
      ],
      "logsBloom": "0x00000000000000200000000000000000000000000000000000000000000000000000000000000000040000000000000000000000100000000000000000000000000000000000000000000008000000000008000000000000000000000000000000000000020000000000000000000800000000000000000000000010200000000000000000000000000000000000000000000000000000000000000000000000010000000000000000000000000000000000000000000000000000000000000000000002000000000000000000000000000000000000000000000000000020000000000000000000000000000000000000000000000000000000000000000000",
      "type": "0x2",
      "transactionHash": "0x4db8d9ff7e66f82ed0e3bb0f92cb61217105ee07bf404c8b37b8d0cf26591e1d",
      "transactionIndex": "0xa8",
      "blockHash": "0x874a1777319f437bcf9da730cfe0d96d310b38523edd6291e7fef27b1af121dd",
      "blockNumber": "0x7fe339",
      "gasUsed": "0xc739",
      "effectiveGasPrice": "0xa5f07a",
      "from": "0x28556cc7cba0a5af1170fb9ed4e634a811366e70",
      "to": "0x92dde23845a3518e577001dfaa1095ec4d5725f4",
      "contractAddress": null
    },
    {
      "status": "0x1",
      "cumulativeGasUsed": "0x1f69b6d",
      "logs": [
        {
          "address": "0x92dde23845a3518e577001dfaa1095ec4d5725f4",
          "topics": [
            "0xddf252ad1be2c89b69c2b068fc378daa952ba7f163c4a11628f55a4df523b3ef",
            "0x0000000000000000000000000000000000000000000000000000000000000000",
            "0x00000000000000000000000028556cc7cba0a5af1170fb9ed4e634a811366e70"
          ],
          "data": "0x0000000000000000000000000000000000000000000000000000000005f5e100",
          "blockHash": "0x874a1777319f437bcf9da730cfe0d96d310b38523edd6291e7fef27b1af121dd",
          "blockNumber": "0x7fe339",
          "blockTimestamp": "0x682eefa0",
          "transactionHash": "0xe45ee38411401406da0b83f787afc2d657e93b3a19310c1c3a91a15e12194ac0",
          "transactionIndex": "0xa9",
          "logIndex": "0x12f",
          "removed": false
        }
      ],
      "logsBloom": "0x00000000000000000000200000000000000000000000000000001000000000000000000000000000000000000000000000000000100000000000000000000000000000000000000000000008000000000008000000000000000000000000000000000000020000000000000000000800000000000000000000000010000000000000000000000000000000000000000000000000000000000000000001000000010000000000000000000000000000000000000000000000000000000000000000000002000000000000000000000000000000000000000000000000000020000000000000000000000000000000000000000000000000000000000000000000",
      "type": "0x2",
      "transactionHash": "0xe45ee38411401406da0b83f787afc2d657e93b3a19310c1c3a91a15e12194ac0",
      "transactionIndex": "0xa9",
      "blockHash": "0x874a1777319f437bcf9da730cfe0d96d310b38523edd6291e7fef27b1af121dd",
      "blockNumber": "0x7fe339",
      "gasUsed": "0x846d",
      "effectiveGasPrice": "0xa5f07a",
      "from": "0x28556cc7cba0a5af1170fb9ed4e634a811366e70",
      "to": "0x92dde23845a3518e577001dfaa1095ec4d5725f4",
      "contractAddress": null
    }
  ],
  "libraries": [],
  "pending": [],
  "returns": {},
  "timestamp": 1747906466,
  "chain": 11155111,
  "commit": "1b272f5"
}